{
  "_format": "hh-sol-artifact-1",
  "contractName": "BabbyBees",
  "sourceName": "contracts/BabbyBees.sol",
  "abi": [
    {
      "inputs": [
        {
          "internalType": "string[]",
          "name": "characterNames",
          "type": "string[]"
        },
        {
          "internalType": "string[]",
          "name": "characterImageURIs",
          "type": "string[]"
        },
        {
          "internalType": "string[]",
          "name": "characterSpecialMoves",
          "type": "string[]"
        },
        {
          "internalType": "uint256[]",
          "name": "characterHp",
          "type": "uint256[]"
        },
        {
          "internalType": "uint256[]",
          "name": "characterArmor",
          "type": "uint256[]"
        },
        {
          "internalType": "uint256[]",
          "name": "characterAttackDmg",
          "type": "uint256[]"
        },
        {
          "internalType": "string",
          "name": "bossName",
          "type": "string"
        },
        {
          "internalType": "string",
          "name": "bossImageURI",
          "type": "string"
        },
        {
          "internalType": "uint256",
          "name": "bossHp",
          "type": "uint256"
        },
        {
          "internalType": "uint256",
          "name": "bossAttackDamage",
          "type": "uint256"
        }
      ],
      "stateMutability": "nonpayable",
      "type": "constructor"
    },
    {
      "anonymous": false,
      "inputs": [
        {
          "indexed": true,
          "internalType": "address",
          "name": "owner",
          "type": "address"
        },
        {
          "indexed": true,
          "internalType": "address",
          "name": "approved",
          "type": "address"
        },
        {
          "indexed": true,
          "internalType": "uint256",
          "name": "tokenId",
          "type": "uint256"
        }
      ],
      "name": "Approval",
      "type": "event"
    },
    {
      "anonymous": false,
      "inputs": [
        {
          "indexed": true,
          "internalType": "address",
          "name": "owner",
          "type": "address"
        },
        {
          "indexed": true,
          "internalType": "address",
          "name": "operator",
          "type": "address"
        },
        {
          "indexed": false,
          "internalType": "bool",
          "name": "approved",
          "type": "bool"
        }
      ],
      "name": "ApprovalForAll",
      "type": "event"
    },
    {
      "anonymous": false,
      "inputs": [
        {
          "indexed": false,
          "internalType": "uint256",
          "name": "newBossHp",
          "type": "uint256"
        },
        {
          "indexed": false,
          "internalType": "uint256",
          "name": "newPlayerHp",
          "type": "uint256"
        }
      ],
      "name": "AttackComplete",
      "type": "event"
    },
    {
      "anonymous": false,
      "inputs": [
        {
          "indexed": false,
          "internalType": "address",
          "name": "sender",
          "type": "address"
        },
        {
          "indexed": false,
          "internalType": "uint256",
          "name": "tokenId",
          "type": "uint256"
        },
        {
          "indexed": false,
          "internalType": "uint256",
          "name": "characterIndex",
          "type": "uint256"
        }
      ],
      "name": "CharacterNFTMinted",
      "type": "event"
    },
    {
      "anonymous": false,
      "inputs": [
        {
          "indexed": true,
          "internalType": "address",
          "name": "from",
          "type": "address"
        },
        {
          "indexed": true,
          "internalType": "address",
          "name": "to",
          "type": "address"
        },
        {
          "indexed": true,
          "internalType": "uint256",
          "name": "tokenId",
          "type": "uint256"
        }
      ],
      "name": "Transfer",
      "type": "event"
    },
    {
      "inputs": [
        {
          "internalType": "address",
          "name": "to",
          "type": "address"
        },
        {
          "internalType": "uint256",
          "name": "tokenId",
          "type": "uint256"
        }
      ],
      "name": "approve",
      "outputs": [],
      "stateMutability": "nonpayable",
      "type": "function"
    },
    {
      "inputs": [],
      "name": "attackBoss",
      "outputs": [],
      "stateMutability": "nonpayable",
      "type": "function"
    },
    {
      "inputs": [
        {
          "internalType": "address",
          "name": "owner",
          "type": "address"
        }
      ],
      "name": "balanceOf",
      "outputs": [
        {
          "internalType": "uint256",
          "name": "",
          "type": "uint256"
        }
      ],
      "stateMutability": "view",
      "type": "function"
    },
    {
      "inputs": [],
      "name": "bossBear",
      "outputs": [
        {
          "internalType": "string",
          "name": "name",
          "type": "string"
        },
        {
          "internalType": "string",
          "name": "imageURI",
          "type": "string"
        },
        {
          "internalType": "uint256",
          "name": "hp",
          "type": "uint256"
        },
        {
          "internalType": "uint256",
          "name": "maxHp",
          "type": "uint256"
        },
        {
          "internalType": "uint256",
          "name": "attackDamage",
          "type": "uint256"
        }
      ],
      "stateMutability": "view",
      "type": "function"
    },
    {
      "inputs": [],
      "name": "checkIfUserHasNFT",
      "outputs": [
        {
          "components": [
            {
              "internalType": "uint256",
              "name": "characterIndex",
              "type": "uint256"
            },
            {
              "internalType": "string",
              "name": "name",
              "type": "string"
            },
            {
              "internalType": "string",
              "name": "imageURI",
              "type": "string"
            },
            {
              "internalType": "string",
              "name": "specialMove",
              "type": "string"
            },
            {
              "internalType": "uint256",
              "name": "hp",
              "type": "uint256"
            },
            {
              "internalType": "uint256",
              "name": "maxHp",
              "type": "uint256"
            },
            {
              "internalType": "uint256",
              "name": "armor",
              "type": "uint256"
            },
            {
              "internalType": "uint256",
              "name": "attackDamage",
              "type": "uint256"
            }
          ],
          "internalType": "struct BabbyBees.CharacterAttributes",
          "name": "",
          "type": "tuple"
        }
      ],
      "stateMutability": "view",
      "type": "function"
    },
    {
      "inputs": [],
      "name": "getAllDefaultCharacters",
      "outputs": [
        {
          "components": [
            {
              "internalType": "uint256",
              "name": "characterIndex",
              "type": "uint256"
            },
            {
              "internalType": "string",
              "name": "name",
              "type": "string"
            },
            {
              "internalType": "string",
              "name": "imageURI",
              "type": "string"
            },
            {
              "internalType": "string",
              "name": "specialMove",
              "type": "string"
            },
            {
              "internalType": "uint256",
              "name": "hp",
              "type": "uint256"
            },
            {
              "internalType": "uint256",
              "name": "maxHp",
              "type": "uint256"
            },
            {
              "internalType": "uint256",
              "name": "armor",
              "type": "uint256"
            },
            {
              "internalType": "uint256",
              "name": "attackDamage",
              "type": "uint256"
            }
          ],
          "internalType": "struct BabbyBees.CharacterAttributes[]",
          "name": "",
          "type": "tuple[]"
        }
      ],
      "stateMutability": "view",
      "type": "function"
    },
    {
      "inputs": [
        {
          "internalType": "uint256",
          "name": "tokenId",
          "type": "uint256"
        }
      ],
      "name": "getApproved",
      "outputs": [
        {
          "internalType": "address",
          "name": "",
          "type": "address"
        }
      ],
      "stateMutability": "view",
      "type": "function"
    },
    {
      "inputs": [],
      "name": "getBossBear",
      "outputs": [
        {
          "components": [
            {
              "internalType": "string",
              "name": "name",
              "type": "string"
            },
            {
              "internalType": "string",
              "name": "imageURI",
              "type": "string"
            },
            {
              "internalType": "uint256",
              "name": "hp",
              "type": "uint256"
            },
            {
              "internalType": "uint256",
              "name": "maxHp",
              "type": "uint256"
            },
            {
              "internalType": "uint256",
              "name": "attackDamage",
              "type": "uint256"
            }
          ],
          "internalType": "struct BabbyBees.BossBear",
          "name": "",
          "type": "tuple"
        }
      ],
      "stateMutability": "view",
      "type": "function"
    },
    {
      "inputs": [
        {
          "internalType": "address",
          "name": "owner",
          "type": "address"
        },
        {
          "internalType": "address",
          "name": "operator",
          "type": "address"
        }
      ],
      "name": "isApprovedForAll",
      "outputs": [
        {
          "internalType": "bool",
          "name": "",
          "type": "bool"
        }
      ],
      "stateMutability": "view",
      "type": "function"
    },
    {
      "inputs": [
        {
          "internalType": "uint256",
          "name": "_characterIndex",
          "type": "uint256"
        }
      ],
      "name": "mintCharacterNFT",
      "outputs": [],
      "stateMutability": "nonpayable",
      "type": "function"
    },
    {
      "inputs": [],
      "name": "name",
      "outputs": [
        {
          "internalType": "string",
          "name": "",
          "type": "string"
        }
      ],
      "stateMutability": "view",
      "type": "function"
    },
    {
      "inputs": [
        {
          "internalType": "uint256",
          "name": "",
          "type": "uint256"
        }
      ],
      "name": "nftHolderAttributes",
      "outputs": [
        {
          "internalType": "uint256",
          "name": "characterIndex",
          "type": "uint256"
        },
        {
          "internalType": "string",
          "name": "name",
          "type": "string"
        },
        {
          "internalType": "string",
          "name": "imageURI",
          "type": "string"
        },
        {
          "internalType": "string",
          "name": "specialMove",
          "type": "string"
        },
        {
          "internalType": "uint256",
          "name": "hp",
          "type": "uint256"
        },
        {
          "internalType": "uint256",
          "name": "maxHp",
          "type": "uint256"
        },
        {
          "internalType": "uint256",
          "name": "armor",
          "type": "uint256"
        },
        {
          "internalType": "uint256",
          "name": "attackDamage",
          "type": "uint256"
        }
      ],
      "stateMutability": "view",
      "type": "function"
    },
    {
      "inputs": [
        {
          "internalType": "address",
          "name": "",
          "type": "address"
        }
      ],
      "name": "nftHolders",
      "outputs": [
        {
          "internalType": "uint256",
          "name": "",
          "type": "uint256"
        }
      ],
      "stateMutability": "view",
      "type": "function"
    },
    {
      "inputs": [
        {
          "internalType": "uint256",
          "name": "tokenId",
          "type": "uint256"
        }
      ],
      "name": "ownerOf",
      "outputs": [
        {
          "internalType": "address",
          "name": "",
          "type": "address"
        }
      ],
      "stateMutability": "view",
      "type": "function"
    },
    {
      "inputs": [
        {
          "internalType": "address",
          "name": "playerAddress",
          "type": "address"
        }
      ],
      "name": "revive",
      "outputs": [],
      "stateMutability": "nonpayable",
      "type": "function"
    },
    {
      "inputs": [
        {
          "internalType": "address",
          "name": "from",
          "type": "address"
        },
        {
          "internalType": "address",
          "name": "to",
          "type": "address"
        },
        {
          "internalType": "uint256",
          "name": "tokenId",
          "type": "uint256"
        }
      ],
      "name": "safeTransferFrom",
      "outputs": [],
      "stateMutability": "nonpayable",
      "type": "function"
    },
    {
      "inputs": [
        {
          "internalType": "address",
          "name": "from",
          "type": "address"
        },
        {
          "internalType": "address",
          "name": "to",
          "type": "address"
        },
        {
          "internalType": "uint256",
          "name": "tokenId",
          "type": "uint256"
        },
        {
          "internalType": "bytes",
          "name": "_data",
          "type": "bytes"
        }
      ],
      "name": "safeTransferFrom",
      "outputs": [],
      "stateMutability": "nonpayable",
      "type": "function"
    },
    {
      "inputs": [
        {
          "internalType": "address",
          "name": "operator",
          "type": "address"
        },
        {
          "internalType": "bool",
          "name": "approved",
          "type": "bool"
        }
      ],
      "name": "setApprovalForAll",
      "outputs": [],
      "stateMutability": "nonpayable",
      "type": "function"
    },
    {
      "inputs": [
        {
          "internalType": "bytes4",
          "name": "interfaceId",
          "type": "bytes4"
        }
      ],
      "name": "supportsInterface",
      "outputs": [
        {
          "internalType": "bool",
          "name": "",
          "type": "bool"
        }
      ],
      "stateMutability": "view",
      "type": "function"
    },
    {
      "inputs": [],
      "name": "symbol",
      "outputs": [
        {
          "internalType": "string",
          "name": "",
          "type": "string"
        }
      ],
      "stateMutability": "view",
      "type": "function"
    },
    {
      "inputs": [
        {
          "internalType": "uint256",
          "name": "_tokenId",
          "type": "uint256"
        }
      ],
      "name": "tokenURI",
      "outputs": [
        {
          "internalType": "string",
          "name": "",
          "type": "string"
        }
      ],
      "stateMutability": "view",
      "type": "function"
    },
    {
      "inputs": [
        {
          "internalType": "address",
          "name": "from",
          "type": "address"
        },
        {
          "internalType": "address",
          "name": "to",
          "type": "address"
        },
        {
          "internalType": "uint256",
          "name": "tokenId",
          "type": "uint256"
        }
      ],
      "name": "transferFrom",
      "outputs": [],
      "stateMutability": "nonpayable",
      "type": "function"
    }
  ],
  "bytecode": "0x60806040523480156200001157600080fd5b506040516200620238038062006202833981810160405281019062000037919062000bb8565b6040518060400160405280600981526020017f42616262794265657300000000000000000000000000000000000000000000008152506040518060400160405280600481526020017f42424253000000000000000000000000000000000000000000000000000000008152508160009080519060200190620000bb9291906200094b565b508060019080519060200190620000d49291906200094b565b5050506040518060a0016040528085815260200184815260200183815260200183815260200182815250600660008201518160000190805190602001906200011e9291906200094b565b5060208201518160010190805190602001906200013d9291906200094b565b50604082015181600201556060820151816003015560808201518160040155905050620002c06040518060600160405280602a8152602001620061d8602a9139600660000180546200018f9062000f45565b80601f0160208091040260200160405190810160405280929190818152602001828054620001bd9062000f45565b80156200020e5780601f10620001e2576101008083540402835291602001916200020e565b820191906000526020600020905b815481529060010190602001808311620001f057829003601f168201915b5050505050600660020154600660010180546200022b9062000f45565b80601f0160208091040260200160405190810160405280929190818152602001828054620002599062000f45565b8015620002aa5780601f106200027e57610100808354040283529160200191620002aa565b820191906000526020600020905b8154815290600101906020018083116200028c57829003601f168201915b50505050506200086060201b620025021760201c565b60005b8a518110156200083857600c6040518061010001604052808381526020018d84815181106200031b577f4e487b7100000000000000000000000000000000000000000000000000000000600052603260045260246000fd5b602002602001015181526020018c848151811062000362577f4e487b7100000000000000000000000000000000000000000000000000000000600052603260045260246000fd5b602002602001015181526020018b8481518110620003a9577f4e487b7100000000000000000000000000000000000000000000000000000000600052603260045260246000fd5b602002602001015181526020018a8481518110620003f0577f4e487b7100000000000000000000000000000000000000000000000000000000600052603260045260246000fd5b602002602001015181526020018a848151811062000437577f4e487b7100000000000000000000000000000000000000000000000000000000600052603260045260246000fd5b602002602001015181526020018984815181106200047e577f4e487b7100000000000000000000000000000000000000000000000000000000600052603260045260246000fd5b60200260200101518152602001888481518110620004c5577f4e487b7100000000000000000000000000000000000000000000000000000000600052603260045260246000fd5b60200260200101518152509080600181540180825580915050600190039060005260206000209060080201600090919091909150600082015181600001556020820151816001019080519060200190620005219291906200094b565b506040820151816002019080519060200190620005409291906200094b565b5060608201518160030190805190602001906200055f9291906200094b565b506080820151816004015560a0820151816005015560c0820151816006015560e0820151816007015550506000600c8281548110620005c7577f4e487b7100000000000000000000000000000000000000000000000000000000600052603260045260246000fd5b90600052602060002090600802016040518061010001604052908160008201548152602001600182018054620005fd9062000f45565b80601f01602080910402602001604051908101604052809291908181526020018280546200062b9062000f45565b80156200067c5780601f1062000650576101008083540402835291602001916200067c565b820191906000526020600020905b8154815290600101906020018083116200065e57829003601f168201915b50505050508152602001600282018054620006979062000f45565b80601f0160208091040260200160405190810160405280929190818152602001828054620006c59062000f45565b8015620007165780601f10620006ea5761010080835404028352916020019162000716565b820191906000526020600020905b815481529060010190602001808311620006f857829003601f168201915b50505050508152602001600382018054620007319062000f45565b80601f01602080910402602001604051908101604052809291908181526020018280546200075f9062000f45565b8015620007b05780601f106200078457610100808354040283529160200191620007b0565b820191906000526020600020905b8154815290600101906020018083116200079257829003601f168201915b50505050508152602001600482015481526020016005820154815260200160068201548152602001600782015481525050905062000821604051806060016040528060258152602001620061b3602591398260200151836080015184604001516200086060201b620025021760201c565b5080806200082f9062000f7b565b915050620002c3565b5062000850600b6200090c60201b620025a41760201c565b5050505050505050505062001081565b62000906848484846040516024016200087d949392919062000dc2565b6040516020818303038152906040527f8d142cdd000000000000000000000000000000000000000000000000000000007bffffffffffffffffffffffffffffffffffffffffffffffffffffffff19166020820180517bffffffffffffffffffffffffffffffffffffffffffffffffffffffff83818316178352505050506200092260201b60201c565b50505050565b6001816000016000828254019250508190555050565b60008151905060006a636f6e736f6c652e6c6f679050602083016000808483855afa5050505050565b828054620009599062000f45565b90600052602060002090601f0160209004810192826200097d5760008555620009c9565b82601f106200099857805160ff1916838001178555620009c9565b82800160010185558215620009c9579182015b82811115620009c8578251825591602001919060010190620009ab565b5b509050620009d89190620009dc565b5090565b5b80821115620009f7576000816000905550600101620009dd565b5090565b600062000a1262000a0c8462000e58565b62000e24565b9050808382526020820190508260005b8581101562000a56578151850162000a3b888262000b74565b84526020840193506020830192505060018101905062000a22565b5050509392505050565b600062000a7762000a718462000e87565b62000e24565b9050808382526020820190508285602086028201111562000a9757600080fd5b60005b8581101562000acb578162000ab0888262000ba1565b84526020840193506020830192505060018101905062000a9a565b5050509392505050565b600062000aec62000ae68462000eb6565b62000e24565b90508281526020810184848401111562000b0557600080fd5b62000b1284828562000f0f565b509392505050565b600082601f83011262000b2c57600080fd5b815162000b3e848260208601620009fb565b91505092915050565b600082601f83011262000b5957600080fd5b815162000b6b84826020860162000a60565b91505092915050565b600082601f83011262000b8657600080fd5b815162000b9884826020860162000ad5565b91505092915050565b60008151905062000bb28162001067565b92915050565b6000806000806000806000806000806101408b8d03121562000bd957600080fd5b60008b015167ffffffffffffffff81111562000bf457600080fd5b62000c028d828e0162000b1a565b9a505060208b015167ffffffffffffffff81111562000c2057600080fd5b62000c2e8d828e0162000b1a565b99505060408b015167ffffffffffffffff81111562000c4c57600080fd5b62000c5a8d828e0162000b1a565b98505060608b015167ffffffffffffffff81111562000c7857600080fd5b62000c868d828e0162000b47565b97505060808b015167ffffffffffffffff81111562000ca457600080fd5b62000cb28d828e0162000b47565b96505060a08b015167ffffffffffffffff81111562000cd057600080fd5b62000cde8d828e0162000b47565b95505060c08b015167ffffffffffffffff81111562000cfc57600080fd5b62000d0a8d828e0162000b74565b94505060e08b015167ffffffffffffffff81111562000d2857600080fd5b62000d368d828e0162000b74565b93505061010062000d4a8d828e0162000ba1565b92505061012062000d5e8d828e0162000ba1565b9150509295989b9194979a5092959850565b600062000d7d8262000ee9565b62000d89818562000ef4565b935062000d9b81856020860162000f0f565b62000da68162001056565b840191505092915050565b62000dbc8162000f05565b82525050565b6000608082019050818103600083015262000dde818762000d70565b9050818103602083015262000df4818662000d70565b905062000e05604083018562000db1565b818103606083015262000e19818462000d70565b905095945050505050565b6000604051905081810181811067ffffffffffffffff8211171562000e4e5762000e4d62001027565b5b8060405250919050565b600067ffffffffffffffff82111562000e765762000e7562001027565b5b602082029050602081019050919050565b600067ffffffffffffffff82111562000ea55762000ea462001027565b5b602082029050602081019050919050565b600067ffffffffffffffff82111562000ed45762000ed362001027565b5b601f19601f8301169050602081019050919050565b600081519050919050565b600082825260208201905092915050565b6000819050919050565b60005b8381101562000f2f57808201518184015260208101905062000f12565b8381111562000f3f576000848401525b50505050565b6000600282049050600182168062000f5e57607f821691505b6020821081141562000f755762000f7462000ff8565b5b50919050565b600062000f888262000f05565b91507fffffffffffffffffffffffffffffffffffffffffffffffffffffffffffffffff82141562000fbe5762000fbd62000fc9565b5b600182019050919050565b7f4e487b7100000000000000000000000000000000000000000000000000000000600052601160045260246000fd5b7f4e487b7100000000000000000000000000000000000000000000000000000000600052602260045260246000fd5b7f4e487b7100000000000000000000000000000000000000000000000000000000600052604160045260246000fd5b6000601f19601f8301169050919050565b620010728162000f05565b81146200107e57600080fd5b50565b61512280620010916000396000f3fe608060405234801561001057600080fd5b50600436106101425760003560e01c806398da4c95116100b8578063c87b56dd1161007c578063c87b56dd14610392578063c8cf27f4146103c2578063d4f24c5b146103e0578063df73fb1a146103ea578063e985e9c514610408578063f8b81ef71461043857610142565b806398da4c95146102e9578063a22cb46514610320578063b17e5f0a1461033c578063b88d4fde14610358578063b953084e1461037457610142565b806323b872dd1161010a57806323b872dd1461020357806342842e0e1461021f5780636352211e1461023b57806370a082311461026b5780637df124a11461029b57806395d89b41146102cb57610142565b806301039aa41461014757806301ffc9a71461016957806306fdde0314610199578063081812fc146101b7578063095ea7b3146101e7575b600080fd5b61014f610454565b60405161016095949392919061475d565b60405180910390f35b610183600480360381019061017e91906137eb565b610588565b6040516101909190614673565b60405180910390f35b6101a161066a565b6040516101ae919061468e565b60405180910390f35b6101d160048036038101906101cc919061383d565b6106fc565b6040516101de91906145b3565b60405180910390f35b61020160048036038101906101fc91906137af565b610781565b005b61021d600480360381019061021891906136a9565b610899565b005b610239600480360381019061023491906136a9565b6108f9565b005b6102556004803603810190610250919061383d565b610919565b60405161026291906145b3565b60405180910390f35b61028560048036038101906102809190613644565b6109cb565b6040516102929190614a90565b60405180910390f35b6102b560048036038101906102b09190613644565b610a83565b6040516102c29190614a90565b60405180910390f35b6102d3610a9b565b6040516102e0919061468e565b60405180910390f35b61030360048036038101906102fe919061383d565b610b2d565b604051610317989796959493929190614aab565b60405180910390f35b61033a60048036038101906103359190613773565b610d0d565b005b61035660048036038101906103519190613644565b610e8e565b005b610372600480360381019061036d91906136f8565b611265565b005b61037c6112c7565b6040516103899190614651565b60405180910390f35b6103ac60048036038101906103a7919061383d565b61150f565b6040516103b9919061468e565b60405180910390f35b6103ca6117c7565b6040516103d79190614a6e565b60405180910390f35b6103e8611a3c565b005b6103f2611dcc565b6040516103ff9190614a4c565b60405180910390f35b610422600480360381019061041d919061366d565b611f28565b60405161042f9190614673565b60405180910390f35b610452600480360381019061044d919061383d565b611fbc565b005b600680600001805461046590614e20565b80601f016020809104026020016040519081016040528092919081815260200182805461049190614e20565b80156104de5780601f106104b3576101008083540402835291602001916104de565b820191906000526020600020905b8154815290600101906020018083116104c157829003601f168201915b5050505050908060010180546104f390614e20565b80601f016020809104026020016040519081016040528092919081815260200182805461051f90614e20565b801561056c5780601f106105415761010080835404028352916020019161056c565b820191906000526020600020905b81548152906001019060200180831161054f57829003601f168201915b5050505050908060020154908060030154908060040154905085565b60007f80ac58cd000000000000000000000000000000000000000000000000000000007bffffffffffffffffffffffffffffffffffffffffffffffffffffffff1916827bffffffffffffffffffffffffffffffffffffffffffffffffffffffff1916148061065357507f5b5e139f000000000000000000000000000000000000000000000000000000007bffffffffffffffffffffffffffffffffffffffffffffffffffffffff1916827bffffffffffffffffffffffffffffffffffffffffffffffffffffffff1916145b806106635750610662826125ba565b5b9050919050565b60606000805461067990614e20565b80601f01602080910402602001604051908101604052809291908181526020018280546106a590614e20565b80156106f25780601f106106c7576101008083540402835291602001916106f2565b820191906000526020600020905b8154815290600101906020018083116106d557829003601f168201915b5050505050905090565b600061070782612624565b610746576040517f08c379a000000000000000000000000000000000000000000000000000000000815260040161073d906149cc565b60405180910390fd5b6004600083815260200190815260200160002060009054906101000a900473ffffffffffffffffffffffffffffffffffffffff169050919050565b600061078c82610919565b90508073ffffffffffffffffffffffffffffffffffffffff168373ffffffffffffffffffffffffffffffffffffffff1614156107fd576040517f08c379a00000000000000000000000000000000000000000000000000000000081526004016107f490614a0c565b60405180910390fd5b8073ffffffffffffffffffffffffffffffffffffffff1661081c612690565b73ffffffffffffffffffffffffffffffffffffffff16148061084b575061084a81610845612690565b611f28565b5b61088a576040517f08c379a00000000000000000000000000000000000000000000000000000000081526004016108819061492c565b60405180910390fd5b6108948383612698565b505050565b6108aa6108a4612690565b82612751565b6108e9576040517f08c379a00000000000000000000000000000000000000000000000000000000081526004016108e090614a2c565b60405180910390fd5b6108f483838361282f565b505050565b61091483838360405180602001604052806000815250611265565b505050565b6000806002600084815260200190815260200160002060009054906101000a900473ffffffffffffffffffffffffffffffffffffffff169050600073ffffffffffffffffffffffffffffffffffffffff168173ffffffffffffffffffffffffffffffffffffffff1614156109c2576040517f08c379a00000000000000000000000000000000000000000000000000000000081526004016109b99061496c565b60405180910390fd5b80915050919050565b60008073ffffffffffffffffffffffffffffffffffffffff168273ffffffffffffffffffffffffffffffffffffffff161415610a3c576040517f08c379a0000000000000000000000000000000000000000000000000000000008152600401610a339061494c565b60405180910390fd5b600360008373ffffffffffffffffffffffffffffffffffffffff1673ffffffffffffffffffffffffffffffffffffffff168152602001908152602001600020549050919050565b600e6020528060005260406000206000915090505481565b606060018054610aaa90614e20565b80601f0160208091040260200160405190810160405280929190818152602001828054610ad690614e20565b8015610b235780601f10610af857610100808354040283529160200191610b23565b820191906000526020600020905b815481529060010190602001808311610b0657829003601f168201915b5050505050905090565b600d602052806000526040600020600091509050806000015490806001018054610b5690614e20565b80601f0160208091040260200160405190810160405280929190818152602001828054610b8290614e20565b8015610bcf5780601f10610ba457610100808354040283529160200191610bcf565b820191906000526020600020905b815481529060010190602001808311610bb257829003601f168201915b505050505090806002018054610be490614e20565b80601f0160208091040260200160405190810160405280929190818152602001828054610c1090614e20565b8015610c5d5780601f10610c3257610100808354040283529160200191610c5d565b820191906000526020600020905b815481529060010190602001808311610c4057829003601f168201915b505050505090806003018054610c7290614e20565b80601f0160208091040260200160405190810160405280929190818152602001828054610c9e90614e20565b8015610ceb5780601f10610cc057610100808354040283529160200191610ceb565b820191906000526020600020905b815481529060010190602001808311610cce57829003601f168201915b5050505050908060040154908060050154908060060154908060070154905088565b610d15612690565b73ffffffffffffffffffffffffffffffffffffffff168273ffffffffffffffffffffffffffffffffffffffff161415610d83576040517f08c379a0000000000000000000000000000000000000000000000000000000008152600401610d7a9061488c565b60405180910390fd5b8060056000610d90612690565b73ffffffffffffffffffffffffffffffffffffffff1673ffffffffffffffffffffffffffffffffffffffff16815260200190815260200160002060008473ffffffffffffffffffffffffffffffffffffffff1673ffffffffffffffffffffffffffffffffffffffff16815260200190815260200160002060006101000a81548160ff0219169083151502179055508173ffffffffffffffffffffffffffffffffffffffff16610e3d612690565b73ffffffffffffffffffffffffffffffffffffffff167f17307eab39ab6107e8899845ad3d59bd9653f200f220920489ca2b5937696c3183604051610e829190614673565b60405180910390a35050565b6000600e60008373ffffffffffffffffffffffffffffffffffffffff1673ffffffffffffffffffffffffffffffffffffffff16815260200190815260200160002054905060008111610f15576040517f08c379a0000000000000000000000000000000000000000000000000000000008152600401610f0c906148cc565b60405180910390fd5b6000600d60008381526020019081526020016000206040518061010001604052908160008201548152602001600182018054610f5090614e20565b80601f0160208091040260200160405190810160405280929190818152602001828054610f7c90614e20565b8015610fc95780601f10610f9e57610100808354040283529160200191610fc9565b820191906000526020600020905b815481529060010190602001808311610fac57829003601f168201915b50505050508152602001600282018054610fe290614e20565b80601f016020809104026020016040519081016040528092919081815260200182805461100e90614e20565b801561105b5780601f106110305761010080835404028352916020019161105b565b820191906000526020600020905b81548152906001019060200180831161103e57829003601f168201915b5050505050815260200160038201805461107490614e20565b80601f01602080910402602001604051908101604052809291908181526020018280546110a090614e20565b80156110ed5780601f106110c2576101008083540402835291602001916110ed565b820191906000526020600020905b8154815290600101906020018083116110d057829003601f168201915b5050505050815260200160048201548152602001600582015481526020016006820154815260200160078201548152505090506000816080015114611167576040517f08c379a000000000000000000000000000000000000000000000000000000000815260040161115e906148ac565b60405180910390fd5b600c8160000151815481106111a5577f4e487b7100000000000000000000000000000000000000000000000000000000600052603260045260246000fd5b90600052602060002090600802016004015481608001818152505080600d60008481526020019081526020016000206000820151816000015560208201518160010190805190602001906111fa92919061345c565b50604082015181600201908051906020019061121792919061345c565b50606082015181600301908051906020019061123492919061345c565b506080820151816004015560a0820151816005015560c0820151816006015560e08201518160070155905050505050565b611276611270612690565b83612751565b6112b5576040517f08c379a00000000000000000000000000000000000000000000000000000000081526004016112ac90614a2c565b60405180910390fd5b6112c184848484612a8b565b50505050565b6060600c805480602002602001604051908101604052809291908181526020016000905b828210156115065783829060005260206000209060080201604051806101000160405290816000820154815260200160018201805461132990614e20565b80601f016020809104026020016040519081016040528092919081815260200182805461135590614e20565b80156113a25780601f10611377576101008083540402835291602001916113a2565b820191906000526020600020905b81548152906001019060200180831161138557829003601f168201915b505050505081526020016002820180546113bb90614e20565b80601f01602080910402602001604051908101604052809291908181526020018280546113e790614e20565b80156114345780601f1061140957610100808354040283529160200191611434565b820191906000526020600020905b81548152906001019060200180831161141757829003601f168201915b5050505050815260200160038201805461144d90614e20565b80601f016020809104026020016040519081016040528092919081815260200182805461147990614e20565b80156114c65780601f1061149b576101008083540402835291602001916114c6565b820191906000526020600020905b8154815290600101906020018083116114a957829003601f168201915b50505050508152602001600482015481526020016005820154815260200160068201548152602001600782015481525050815260200190600101906112eb565b50505050905090565b60606000600d6000848152602001908152602001600020604051806101000160405290816000820154815260200160018201805461154c90614e20565b80601f016020809104026020016040519081016040528092919081815260200182805461157890614e20565b80156115c55780601f1061159a576101008083540402835291602001916115c5565b820191906000526020600020905b8154815290600101906020018083116115a857829003601f168201915b505050505081526020016002820180546115de90614e20565b80601f016020809104026020016040519081016040528092919081815260200182805461160a90614e20565b80156116575780601f1061162c57610100808354040283529160200191611657565b820191906000526020600020905b81548152906001019060200180831161163a57829003601f168201915b5050505050815260200160038201805461167090614e20565b80601f016020809104026020016040519081016040528092919081815260200182805461169c90614e20565b80156116e95780601f106116be576101008083540402835291602001916116e9565b820191906000526020600020905b8154815290600101906020018083116116cc57829003601f168201915b505050505081526020016004820154815260200160058201548152602001600682015481526020016007820154815250509050600061172b8260800151612ae7565b9050600061173c8360a00151612ae7565b9050600061174d8460e00151612ae7565b90506000611793856020015161176289612ae7565b876040015187878760405160200161177f969594939291906144ec565b604051602081830303815290604052612c94565b90506000816040516020016117a89190614591565b6040516020818303038152906040529050809650505050505050919050565b6117cf6134e2565b6000600e60003373ffffffffffffffffffffffffffffffffffffffff1673ffffffffffffffffffffffffffffffffffffffff1681526020019081526020016000205490506000811115611a2b57600d6000828152602001908152602001600020604051806101000160405290816000820154815260200160018201805461185590614e20565b80601f016020809104026020016040519081016040528092919081815260200182805461188190614e20565b80156118ce5780601f106118a3576101008083540402835291602001916118ce565b820191906000526020600020905b8154815290600101906020018083116118b157829003601f168201915b505050505081526020016002820180546118e790614e20565b80601f016020809104026020016040519081016040528092919081815260200182805461191390614e20565b80156119605780601f1061193557610100808354040283529160200191611960565b820191906000526020600020905b81548152906001019060200180831161194357829003601f168201915b5050505050815260200160038201805461197990614e20565b80601f01602080910402602001604051908101604052809291908181526020018280546119a590614e20565b80156119f25780601f106119c7576101008083540402835291602001916119f2565b820191906000526020600020905b8154815290600101906020018083116119d557829003601f168201915b50505050508152602001600482015481526020016005820154815260200160068201548152602001600782015481525050915050611a39565b611a336134e2565b80925050505b90565b6000600e60003373ffffffffffffffffffffffffffffffffffffffff1673ffffffffffffffffffffffffffffffffffffffff1681526020019081526020016000205490506000600d60008381526020019081526020016000209050611b4f6040518060600160405280603c81526020016150b1603c9139826001018054611ac290614e20565b80601f0160208091040260200160405190810160405280929190818152602001828054611aee90614e20565b8015611b3b5780601f10611b1057610100808354040283529160200191611b3b565b820191906000526020600020905b815481529060010190602001808311611b1e57829003601f168201915b505050505083600401548460070154612e52565b611c276040518060400160405280601b81526020017f426f73732025732068617320257320485020616e64202573204144000000000081525060066000018054611b9890614e20565b80601f0160208091040260200160405190810160405280929190818152602001828054611bc490614e20565b8015611c115780601f10611be657610100808354040283529160200191611c11565b820191906000526020600020905b815481529060010190602001808311611bf457829003601f168201915b5050505050600660020154600660040154612e52565b6000816004015411611c6e576040517f08c379a0000000000000000000000000000000000000000000000000000000008152600401611c659061498c565b60405180910390fd5b600060066002015411611cb6576040517f08c379a0000000000000000000000000000000000000000000000000000000008152600401611cad906148ec565b60405180910390fd5b80600701546006600201541015611cd7576000600660020181905550611cf8565b806007015460066002016000828254611cf09190614d36565b925050819055505b60066004015481600401541015611d185760008160040181905550611d39565b600660040154816004016000828254611d319190614d36565b925050819055505b611d60604051806060016040528060258152602001614ff660259139600660020154612ef4565b611d8660405180606001604052806028815260200161505b602891398260040154612ef4565b7f838ab28464562786a6c4ab2311964b82fa60bd9b14aa7e856af1f3f18d41a4146006600201548260040154604051611dc0929190614b3e565b60405180910390a15050565b611dd4613527565b60066040518060a0016040529081600082018054611df190614e20565b80601f0160208091040260200160405190810160405280929190818152602001828054611e1d90614e20565b8015611e6a5780601f10611e3f57610100808354040283529160200191611e6a565b820191906000526020600020905b815481529060010190602001808311611e4d57829003601f168201915b50505050508152602001600182018054611e8390614e20565b80601f0160208091040260200160405190810160405280929190818152602001828054611eaf90614e20565b8015611efc5780601f10611ed157610100808354040283529160200191611efc565b820191906000526020600020905b815481529060010190602001808311611edf57829003601f168201915b505050505081526020016002820154815260200160038201548152602001600482015481525050905090565b6000600560008473ffffffffffffffffffffffffffffffffffffffff1673ffffffffffffffffffffffffffffffffffffffff16815260200190815260200160002060008373ffffffffffffffffffffffffffffffffffffffff1673ffffffffffffffffffffffffffffffffffffffff16815260200190815260200160002060009054906101000a900460ff16905092915050565b6000611fc8600b612f90565b9050611fd43382612f9e565b604051806101000160405280838152602001600c8481548110612020577f4e487b7100000000000000000000000000000000000000000000000000000000600052603260045260246000fd5b9060005260206000209060080201600101805461203c90614e20565b80601f016020809104026020016040519081016040528092919081815260200182805461206890614e20565b80156120b55780601f1061208a576101008083540402835291602001916120b5565b820191906000526020600020905b81548152906001019060200180831161209857829003601f168201915b50505050508152602001600c84815481106120f9577f4e487b7100000000000000000000000000000000000000000000000000000000600052603260045260246000fd5b9060005260206000209060080201600201805461211590614e20565b80601f016020809104026020016040519081016040528092919081815260200182805461214190614e20565b801561218e5780601f106121635761010080835404028352916020019161218e565b820191906000526020600020905b81548152906001019060200180831161217157829003601f168201915b50505050508152602001600c84815481106121d2577f4e487b7100000000000000000000000000000000000000000000000000000000600052603260045260246000fd5b906000526020600020906008020160030180546121ee90614e20565b80601f016020809104026020016040519081016040528092919081815260200182805461221a90614e20565b80156122675780601f1061223c57610100808354040283529160200191612267565b820191906000526020600020905b81548152906001019060200180831161224a57829003601f168201915b50505050508152602001600c84815481106122ab577f4e487b7100000000000000000000000000000000000000000000000000000000600052603260045260246000fd5b9060005260206000209060080201600401548152602001600c84815481106122fc577f4e487b7100000000000000000000000000000000000000000000000000000000600052603260045260246000fd5b9060005260206000209060080201600501548152602001600c848154811061234d577f4e487b7100000000000000000000000000000000000000000000000000000000600052603260045260246000fd5b9060005260206000209060080201600601548152602001600c848154811061239e577f4e487b7100000000000000000000000000000000000000000000000000000000600052603260045260246000fd5b906000526020600020906008020160070154815250600d60008381526020019081526020016000206000820151816000015560208201518160010190805190602001906123ec92919061345c565b50604082015181600201908051906020019061240992919061345c565b50606082015181600301908051906020019061242692919061345c565b506080820151816004015560a0820151816005015560c0820151816006015560e082015181600701559050506124756040518060600160405280602e8152602001615083602e91398284612fbc565b80600e60003373ffffffffffffffffffffffffffffffffffffffff1673ffffffffffffffffffffffffffffffffffffffff168152602001908152602001600020819055506124c3600b6125a4565b7f4bc303fd457a97b4691b9af582ce71868a3d258638c8d4f8c60988a0f0bfb8cd3382846040516124f69392919061461a565b60405180910390a15050565b61259e8484848460405160240161251c94939291906146b0565b6040516020818303038152906040527f8d142cdd000000000000000000000000000000000000000000000000000000007bffffffffffffffffffffffffffffffffffffffffffffffffffffffff19166020820180517bffffffffffffffffffffffffffffffffffffffffffffffffffffffff838183161783525050505061305b565b50505050565b6001816000016000828254019250508190555050565b60007f01ffc9a7000000000000000000000000000000000000000000000000000000007bffffffffffffffffffffffffffffffffffffffffffffffffffffffff1916827bffffffffffffffffffffffffffffffffffffffffffffffffffffffff1916149050919050565b60008073ffffffffffffffffffffffffffffffffffffffff166002600084815260200190815260200160002060009054906101000a900473ffffffffffffffffffffffffffffffffffffffff1673ffffffffffffffffffffffffffffffffffffffff1614159050919050565b600033905090565b816004600083815260200190815260200160002060006101000a81548173ffffffffffffffffffffffffffffffffffffffff021916908373ffffffffffffffffffffffffffffffffffffffff160217905550808273ffffffffffffffffffffffffffffffffffffffff1661270b83610919565b73ffffffffffffffffffffffffffffffffffffffff167f8c5be1e5ebec7d5bd14f71427d1e84f3dd0314c0f7b2291e5b200ac8c7c3b92560405160405180910390a45050565b600061275c82612624565b61279b576040517f08c379a00000000000000000000000000000000000000000000000000000000081526004016127929061490c565b60405180910390fd5b60006127a683610919565b90508073ffffffffffffffffffffffffffffffffffffffff168473ffffffffffffffffffffffffffffffffffffffff16148061281557508373ffffffffffffffffffffffffffffffffffffffff166127fd846106fc565b73ffffffffffffffffffffffffffffffffffffffff16145b8061282657506128258185611f28565b5b91505092915050565b8273ffffffffffffffffffffffffffffffffffffffff1661284f82610919565b73ffffffffffffffffffffffffffffffffffffffff16146128a5576040517f08c379a000000000000000000000000000000000000000000000000000000000815260040161289c906149ec565b60405180910390fd5b600073ffffffffffffffffffffffffffffffffffffffff168273ffffffffffffffffffffffffffffffffffffffff161415612915576040517f08c379a000000000000000000000000000000000000000000000000000000000815260040161290c9061486c565b60405180910390fd5b612920838383613084565b61292b600082612698565b6001600360008573ffffffffffffffffffffffffffffffffffffffff1673ffffffffffffffffffffffffffffffffffffffff168152602001908152602001600020600082825461297b9190614d36565b925050819055506001600360008473ffffffffffffffffffffffffffffffffffffffff1673ffffffffffffffffffffffffffffffffffffffff16815260200190815260200160002060008282546129d29190614c55565b92505081905550816002600083815260200190815260200160002060006101000a81548173ffffffffffffffffffffffffffffffffffffffff021916908373ffffffffffffffffffffffffffffffffffffffff160217905550808273ffffffffffffffffffffffffffffffffffffffff168473ffffffffffffffffffffffffffffffffffffffff167fddf252ad1be2c89b69c2b068fc378daa952ba7f163c4a11628f55a4df523b3ef60405160405180910390a4505050565b612a9684848461282f565b612aa284848484613089565b612ae1576040517f08c379a0000000000000000000000000000000000000000000000000000000008152600401612ad89061482c565b60405180910390fd5b50505050565b60606000821415612b2f576040518060400160405280600181526020017f30000000000000000000000000000000000000000000000000000000000000008152509050612c8f565b600082905060005b60008214612b61578080612b4a90614e52565b915050600a82612b5a9190614cab565b9150612b37565b60008167ffffffffffffffff811115612ba3577f4e487b7100000000000000000000000000000000000000000000000000000000600052604160045260246000fd5b6040519080825280601f01601f191660200182016040528015612bd55781602001600182028036833780820191505090505b5090505b60008514612c8857600182612bee9190614d36565b9150600a85612bfd9190614e9b565b6030612c099190614c55565b60f81b818381518110612c45577f4e487b7100000000000000000000000000000000000000000000000000000000600052603260045260246000fd5b60200101907effffffffffffffffffffffffffffffffffffffffffffffffffffffffffffff1916908160001a905350600a85612c819190614cab565b9450612bd9565b8093505050505b919050565b60606000825190506000811415612cbd5760405180602001604052806000815250915050612e4d565b60006003600283612cce9190614c55565b612cd89190614cab565b6004612ce49190614cdc565b90506000602082612cf59190614c55565b67ffffffffffffffff811115612d34577f4e487b7100000000000000000000000000000000000000000000000000000000600052604160045260246000fd5b6040519080825280601f01601f191660200182016040528015612d665781602001600182028036833780820191505090505b509050600060405180606001604052806040815260200161501b604091399050600181016020830160005b86811015612e0a5760038101905062ffffff818a015116603f8160121c168401518060081b905060ff603f83600c1c1686015116810190508060081b905060ff603f8360061c1686015116810190508060081b905060ff603f831686015116810190508060e01b90508084526004840193505050612d91565b506003860660018114612e245760028114612e3457612e3f565b613d3d60f01b6002830352612e3f565b603d60f81b60018303525b508484525050819450505050505b919050565b612eee84848484604051602401612e6c949392919061470a565b6040516020818303038152906040527fd5cf17d0000000000000000000000000000000000000000000000000000000007bffffffffffffffffffffffffffffffffffffffffffffffffffffffff19166020820180517bffffffffffffffffffffffffffffffffffffffffffffffffffffffff838183161783525050505061305b565b50505050565b612f8c8282604051602401612f0a9291906147be565b6040516020818303038152906040527f9710a9d0000000000000000000000000000000000000000000000000000000007bffffffffffffffffffffffffffffffffffffffffffffffffffffffff19166020820180517bffffffffffffffffffffffffffffffffffffffffffffffffffffffff838183161783525050505061305b565b5050565b600081600001549050919050565b612fb8828260405180602001604052806000815250613220565b5050565b613056838383604051602401612fd4939291906147ee565b6040516020818303038152906040527f969cdd03000000000000000000000000000000000000000000000000000000007bffffffffffffffffffffffffffffffffffffffffffffffffffffffff19166020820180517bffffffffffffffffffffffffffffffffffffffffffffffffffffffff838183161783525050505061305b565b505050565b60008151905060006a636f6e736f6c652e6c6f679050602083016000808483855afa5050505050565b505050565b60006130aa8473ffffffffffffffffffffffffffffffffffffffff1661327b565b15613213578373ffffffffffffffffffffffffffffffffffffffff1663150b7a026130d3612690565b8786866040518563ffffffff1660e01b81526004016130f594939291906145ce565b602060405180830381600087803b15801561310f57600080fd5b505af192505050801561314057506040513d601f19601f8201168201806040525081019061313d9190613814565b60015b6131c3573d8060008114613170576040519150601f19603f3d011682016040523d82523d6000602084013e613175565b606091505b506000815114156131bb576040517f08c379a00000000000000000000000000000000000000000000000000000000081526004016131b29061482c565b60405180910390fd5b805181602001fd5b63150b7a0260e01b7bffffffffffffffffffffffffffffffffffffffffffffffffffffffff1916817bffffffffffffffffffffffffffffffffffffffffffffffffffffffff191614915050613218565b600190505b949350505050565b61322a838361328e565b6132376000848484613089565b613276576040517f08c379a000000000000000000000000000000000000000000000000000000000815260040161326d9061482c565b60405180910390fd5b505050565b600080823b905060008111915050919050565b600073ffffffffffffffffffffffffffffffffffffffff168273ffffffffffffffffffffffffffffffffffffffff1614156132fe576040517f08c379a00000000000000000000000000000000000000000000000000000000081526004016132f5906149ac565b60405180910390fd5b61330781612624565b15613347576040517f08c379a000000000000000000000000000000000000000000000000000000000815260040161333e9061484c565b60405180910390fd5b61335360008383613084565b6001600360008473ffffffffffffffffffffffffffffffffffffffff1673ffffffffffffffffffffffffffffffffffffffff16815260200190815260200160002060008282546133a39190614c55565b92505081905550816002600083815260200190815260200160002060006101000a81548173ffffffffffffffffffffffffffffffffffffffff021916908373ffffffffffffffffffffffffffffffffffffffff160217905550808273ffffffffffffffffffffffffffffffffffffffff16600073ffffffffffffffffffffffffffffffffffffffff167fddf252ad1be2c89b69c2b068fc378daa952ba7f163c4a11628f55a4df523b3ef60405160405180910390a45050565b82805461346890614e20565b90600052602060002090601f01602090048101928261348a57600085556134d1565b82601f106134a357805160ff19168380011785556134d1565b828001600101855582156134d1579182015b828111156134d05782518255916020019190600101906134b5565b5b5090506134de9190613556565b5090565b60405180610100016040528060008152602001606081526020016060815260200160608152602001600081526020016000815260200160008152602001600081525090565b6040518060a0016040528060608152602001606081526020016000815260200160008152602001600081525090565b5b8082111561356f576000816000905550600101613557565b5090565b600061358661358184614b98565b614b67565b90508281526020810184848401111561359e57600080fd5b6135a9848285614dde565b509392505050565b6000813590506135c081614f99565b92915050565b6000813590506135d581614fb0565b92915050565b6000813590506135ea81614fc7565b92915050565b6000815190506135ff81614fc7565b92915050565b600082601f83011261361657600080fd5b8135613626848260208601613573565b91505092915050565b60008135905061363e81614fde565b92915050565b60006020828403121561365657600080fd5b6000613664848285016135b1565b91505092915050565b6000806040838503121561368057600080fd5b600061368e858286016135b1565b925050602061369f858286016135b1565b9150509250929050565b6000806000606084860312156136be57600080fd5b60006136cc868287016135b1565b93505060206136dd868287016135b1565b92505060406136ee8682870161362f565b9150509250925092565b6000806000806080858703121561370e57600080fd5b600061371c878288016135b1565b945050602061372d878288016135b1565b935050604061373e8782880161362f565b925050606085013567ffffffffffffffff81111561375b57600080fd5b61376787828801613605565b91505092959194509250565b6000806040838503121561378657600080fd5b6000613794858286016135b1565b92505060206137a5858286016135c6565b9150509250929050565b600080604083850312156137c257600080fd5b60006137d0858286016135b1565b92505060206137e18582860161362f565b9150509250929050565b6000602082840312156137fd57600080fd5b600061380b848285016135db565b91505092915050565b60006020828403121561382657600080fd5b6000613834848285016135f0565b91505092915050565b60006020828403121561384f57600080fd5b600061385d8482850161362f565b91505092915050565b60006138728383614352565b905092915050565b61388381614d6a565b82525050565b600061389482614bd8565b61389e8185614c06565b9350836020820285016138b085614bc8565b8060005b858110156138ec57848403895281516138cd8582613866565b94506138d883614bf9565b925060208a019950506001810190506138b4565b50829750879550505050505092915050565b61390781614d7c565b82525050565b600061391882614be3565b6139228185614c17565b9350613932818560208601614ded565b61393b81614f88565b840191505092915050565b600061395182614bee565b61395b8185614c28565b935061396b818560208601614ded565b61397481614f88565b840191505092915050565b600061398a82614bee565b6139948185614c39565b93506139a4818560208601614ded565b6139ad81614f88565b840191505092915050565b60006139c382614bee565b6139cd8185614c4a565b93506139dd818560208601614ded565b80840191505092915050565b60006139f6600b83614c4a565b91507f202d2d204e465420233a200000000000000000000000000000000000000000006000830152600b82019050919050565b6000613a36603283614c39565b91507f4552433732313a207472616e7366657220746f206e6f6e20455243373231526560008301527f63656976657220696d706c656d656e74657200000000000000000000000000006020830152604082019050919050565b6000613a9c605c83614c4a565b91507f222c20226465736372697074696f6e223a20225468697320697320616e204e4660008301527f542074686174206c6574732070656f706c6520706c617920696e20746865206760208301527f616d65204261626279204265657321222c2022696d616765223a2022000000006040830152605c82019050919050565b6000613b28601c83614c39565b91507f4552433732313a20746f6b656e20616c7265616479206d696e746564000000006000830152602082019050919050565b6000613b68600e83614c4a565b91507f2c20226d61785f76616c7565223a0000000000000000000000000000000000006000830152600e82019050919050565b6000613ba8602483614c39565b91507f4552433732313a207472616e7366657220746f20746865207a65726f2061646460008301527f72657373000000000000000000000000000000000000000000000000000000006020830152604082019050919050565b6000613c0e601983614c39565b91507f4552433732313a20617070726f766520746f2063616c6c6572000000000000006000830152602082019050919050565b6000613c4e601a83614c39565b91507f4572726f723a20506c61796572206870206e6f7420617420302e0000000000006000830152602082019050919050565b6000613c8e603583614c39565b91507f4572726f723a20546869732077616c6c6574206164647265737320646f65732060008301527f6e6f7420686176652061206368617261637465722e00000000000000000000006020830152604082019050919050565b6000613cf4604b83614c39565b91507f4572726f723a204269672042616420426162627920426561722068617320626560008301527f656e206d757264657265642e20596f752063616e27742062656174206120646560208301527f61642e2e2e20626561722e0000000000000000000000000000000000000000006040830152606082019050919050565b6000613d80602c83614c39565b91507f4552433732313a206f70657261746f7220717565727920666f72206e6f6e657860008301527f697374656e7420746f6b656e00000000000000000000000000000000000000006020830152604082019050919050565b6000613de6603883614c39565b91507f4552433732313a20617070726f76652063616c6c6572206973206e6f74206f7760008301527f6e6572206e6f7220617070726f76656420666f7220616c6c00000000000000006020830152604082019050919050565b6000613e4c602a83614c39565b91507f4552433732313a2062616c616e636520717565727920666f7220746865207a6560008301527f726f2061646472657373000000000000000000000000000000000000000000006020830152604082019050919050565b6000613eb2602983614c39565b91507f4552433732313a206f776e657220717565727920666f72206e6f6e657869737460008301527f656e7420746f6b656e00000000000000000000000000000000000000000000006020830152604082019050919050565b6000613f18603c83614c39565b91507f4572726f723a20636861726163746572206d757374206861766520485020746f60008301527f2061747461636b204269672042616420426162627920426561722121000000006020830152604082019050919050565b6000613f7e600483614c4a565b91507f7d205d7d000000000000000000000000000000000000000000000000000000006000830152600482019050919050565b6000613fbe602083614c39565b91507f4552433732313a206d696e7420746f20746865207a65726f20616464726573736000830152602082019050919050565b6000613ffe602c83614c39565b91507f4552433732313a20617070726f76656420717565727920666f72206e6f6e657860008301527f697374656e7420746f6b656e00000000000000000000000000000000000000006020830152604082019050919050565b6000614064602983614c39565b91507f4552433732313a207472616e73666572206f6620746f6b656e2074686174206960008301527f73206e6f74206f776e00000000000000000000000000000000000000000000006020830152604082019050919050565b60006140ca600a83614c4a565b91507f7b226e616d65223a2022000000000000000000000000000000000000000000006000830152600a82019050919050565b600061410a602183614c39565b91507f4552433732313a20617070726f76616c20746f2063757272656e74206f776e6560008301527f72000000000000000000000000000000000000000000000000000000000000006020830152604082019050919050565b6000614170601d83614c4a565b91507f646174613a6170706c69636174696f6e2f6a736f6e3b6261736536342c0000006000830152601d82019050919050565b60006141b0603183614c39565b91507f4552433732313a207472616e736665722063616c6c6572206973206e6f74206f60008301527f776e6572206e6f7220617070726f7665640000000000000000000000000000006020830152604082019050919050565b6000614216603d83614c4a565b91507f222c202261747472696275746573223a205b207b202274726169745f7479706560008301527f223a20224865616c746820506f696e7473222c202276616c7565223a200000006020830152603d82019050919050565b600061427c602d83614c4a565b91507f7d2c207b202274726169745f74797065223a202241747461636b2044616d616760008301527f65222c202276616c7565223a20000000000000000000000000000000000000006020830152602d82019050919050565b600060a08301600083015184820360008601526142f28282613946565b9150506020830151848203602086015261430c8282613946565b915050604083015161432160408601826144ce565b50606083015161433460608601826144ce565b50608083015161434760808601826144ce565b508091505092915050565b60006101008301600083015161436b60008601826144ce565b50602083015184820360208601526143838282613946565b9150506040830151848203604086015261439d8282613946565b915050606083015184820360608601526143b78282613946565b91505060808301516143cc60808601826144ce565b5060a08301516143df60a08601826144ce565b5060c08301516143f260c08601826144ce565b5060e083015161440560e08601826144ce565b508091505092915050565b60006101008301600083015161442960008601826144ce565b50602083015184820360208601526144418282613946565b9150506040830151848203604086015261445b8282613946565b915050606083015184820360608601526144758282613946565b915050608083015161448a60808601826144ce565b5060a083015161449d60a08601826144ce565b5060c08301516144b060c08601826144ce565b5060e08301516144c360e08601826144ce565b508091505092915050565b6144d781614dd4565b82525050565b6144e681614dd4565b82525050565b60006144f7826140bd565b915061450382896139b8565b915061450e826139e9565b915061451a82886139b8565b915061452582613a8f565b915061453182876139b8565b915061453c82614209565b915061454882866139b8565b915061455382613b5b565b915061455f82856139b8565b915061456a8261426f565b915061457682846139b8565b915061458182613f71565b9150819050979650505050505050565b600061459c82614163565b91506145a882846139b8565b915081905092915050565b60006020820190506145c8600083018461387a565b92915050565b60006080820190506145e3600083018761387a565b6145f0602083018661387a565b6145fd60408301856144dd565b818103606083015261460f818461390d565b905095945050505050565b600060608201905061462f600083018661387a565b61463c60208301856144dd565b61464960408301846144dd565b949350505050565b6000602082019050818103600083015261466b8184613889565b905092915050565b600060208201905061468860008301846138fe565b92915050565b600060208201905081810360008301526146a8818461397f565b905092915050565b600060808201905081810360008301526146ca818761397f565b905081810360208301526146de818661397f565b90506146ed60408301856144dd565b81810360608301526146ff818461397f565b905095945050505050565b60006080820190508181036000830152614724818761397f565b90508181036020830152614738818661397f565b905061474760408301856144dd565b61475460608301846144dd565b95945050505050565b600060a0820190508181036000830152614777818861397f565b9050818103602083015261478b818761397f565b905061479a60408301866144dd565b6147a760608301856144dd565b6147b460808301846144dd565b9695505050505050565b600060408201905081810360008301526147d8818561397f565b90506147e760208301846144dd565b9392505050565b60006060820190508181036000830152614808818661397f565b905061481760208301856144dd565b61482460408301846144dd565b949350505050565b6000602082019050818103600083015261484581613a29565b9050919050565b6000602082019050818103600083015261486581613b1b565b9050919050565b6000602082019050818103600083015261488581613b9b565b9050919050565b600060208201905081810360008301526148a581613c01565b9050919050565b600060208201905081810360008301526148c581613c41565b9050919050565b600060208201905081810360008301526148e581613c81565b9050919050565b6000602082019050818103600083015261490581613ce7565b9050919050565b6000602082019050818103600083015261492581613d73565b9050919050565b6000602082019050818103600083015261494581613dd9565b9050919050565b6000602082019050818103600083015261496581613e3f565b9050919050565b6000602082019050818103600083015261498581613ea5565b9050919050565b600060208201905081810360008301526149a581613f0b565b9050919050565b600060208201905081810360008301526149c581613fb1565b9050919050565b600060208201905081810360008301526149e581613ff1565b9050919050565b60006020820190508181036000830152614a0581614057565b9050919050565b60006020820190508181036000830152614a25816140fd565b9050919050565b60006020820190508181036000830152614a45816141a3565b9050919050565b60006020820190508181036000830152614a6681846142d5565b905092915050565b60006020820190508181036000830152614a888184614410565b905092915050565b6000602082019050614aa560008301846144dd565b92915050565b600061010082019050614ac1600083018b6144dd565b8181036020830152614ad3818a61397f565b90508181036040830152614ae7818961397f565b90508181036060830152614afb818861397f565b9050614b0a60808301876144dd565b614b1760a08301866144dd565b614b2460c08301856144dd565b614b3160e08301846144dd565b9998505050505050505050565b6000604082019050614b5360008301856144dd565b614b6060208301846144dd565b9392505050565b6000604051905081810181811067ffffffffffffffff82111715614b8e57614b8d614f59565b5b8060405250919050565b600067ffffffffffffffff821115614bb357614bb2614f59565b5b601f19601f8301169050602081019050919050565b6000819050602082019050919050565b600081519050919050565b600081519050919050565b600081519050919050565b6000602082019050919050565b600082825260208201905092915050565b600082825260208201905092915050565b600082825260208201905092915050565b600082825260208201905092915050565b600081905092915050565b6000614c6082614dd4565b9150614c6b83614dd4565b9250827fffffffffffffffffffffffffffffffffffffffffffffffffffffffffffffffff03821115614ca057614c9f614ecc565b5b828201905092915050565b6000614cb682614dd4565b9150614cc183614dd4565b925082614cd157614cd0614efb565b5b828204905092915050565b6000614ce782614dd4565b9150614cf283614dd4565b9250817fffffffffffffffffffffffffffffffffffffffffffffffffffffffffffffffff0483118215151615614d2b57614d2a614ecc565b5b828202905092915050565b6000614d4182614dd4565b9150614d4c83614dd4565b925082821015614d5f57614d5e614ecc565b5b828203905092915050565b6000614d7582614db4565b9050919050565b60008115159050919050565b60007fffffffff0000000000000000000000000000000000000000000000000000000082169050919050565b600073ffffffffffffffffffffffffffffffffffffffff82169050919050565b6000819050919050565b82818337600083830152505050565b60005b83811015614e0b578082015181840152602081019050614df0565b83811115614e1a576000848401525b50505050565b60006002820490506001821680614e3857607f821691505b60208210811415614e4c57614e4b614f2a565b5b50919050565b6000614e5d82614dd4565b91507fffffffffffffffffffffffffffffffffffffffffffffffffffffffffffffffff821415614e9057614e8f614ecc565b5b600182019050919050565b6000614ea682614dd4565b9150614eb183614dd4565b925082614ec157614ec0614efb565b5b828206905092915050565b7f4e487b7100000000000000000000000000000000000000000000000000000000600052601160045260246000fd5b7f4e487b7100000000000000000000000000000000000000000000000000000000600052601260045260246000fd5b7f4e487b7100000000000000000000000000000000000000000000000000000000600052602260045260246000fd5b7f4e487b7100000000000000000000000000000000000000000000000000000000600052604160045260246000fd5b6000601f19601f8301169050919050565b614fa281614d6a565b8114614fad57600080fd5b50565b614fb981614d7c565b8114614fc457600080fd5b50565b614fd081614d88565b8114614fdb57600080fd5b50565b614fe781614dd4565b8114614ff257600080fd5b5056fe506c617965722061747461636b656420626f73732e204e657720626f73732068703a2025734142434445464748494a4b4c4d4e4f505152535455565758595a6162636465666768696a6b6c6d6e6f707172737475767778797a303132333435363738392b2f426f73732061747461636b656420706c617965722e204e657720706c617965722068703a2025730a4d696e746564204e465420772f20746f6b656e496420257320616e6420636861726163746572496e6465782025730a506c6179657220772f206368617261637465722025732061626f757420746f2061747461636b2e2048617320257320485020616e64202573204144a26469706673582212202c47feefd95b1ce0c6b47b5e06d83b1804d4e5145a66d780e0f1d9e50dba78a264736f6c63430008000033446f6e6520696e697469616c697a696e6720257320772f2048502025732c20696d67202573446f6e6520696e697469616c697a696e6720626f737320257320772f2048502025732c20696d67202573",
  "linkReferences": {},
  "deployedLinkReferences": {}
}