{
  "_format": "hh-sol-artifact-1",
  "contractName": "BabbyBees",
  "sourceName": "contracts/BabbyBees.sol",
  "abi": [
    {
      "inputs": [
        {
          "internalType": "string[]",
          "name": "characterNames",
          "type": "string[]"
        },
        {
          "internalType": "string[]",
          "name": "characterImageURIs",
          "type": "string[]"
        },
        {
          "internalType": "string[]",
          "name": "characterSpecialMoves",
          "type": "string[]"
        },
        {
          "internalType": "uint256[]",
          "name": "characterHp",
          "type": "uint256[]"
        },
        {
          "internalType": "uint256[]",
          "name": "characterArmor",
          "type": "uint256[]"
        },
        {
          "internalType": "uint256[]",
          "name": "characterAttachDmg",
          "type": "uint256[]"
        },
        {
          "internalType": "string",
          "name": "bossName",
          "type": "string"
        },
        {
          "internalType": "string",
          "name": "bossImageURI",
          "type": "string"
        },
        {
          "internalType": "uint256",
          "name": "bossHp",
          "type": "uint256"
        },
        {
          "internalType": "uint256",
          "name": "bossAttackDamage",
          "type": "uint256"
        }
      ],
      "stateMutability": "nonpayable",
      "type": "constructor"
    },
    {
      "anonymous": false,
      "inputs": [
        {
          "indexed": true,
          "internalType": "address",
          "name": "owner",
          "type": "address"
        },
        {
          "indexed": true,
          "internalType": "address",
          "name": "approved",
          "type": "address"
        },
        {
          "indexed": true,
          "internalType": "uint256",
          "name": "tokenId",
          "type": "uint256"
        }
      ],
      "name": "Approval",
      "type": "event"
    },
    {
      "anonymous": false,
      "inputs": [
        {
          "indexed": true,
          "internalType": "address",
          "name": "owner",
          "type": "address"
        },
        {
          "indexed": true,
          "internalType": "address",
          "name": "operator",
          "type": "address"
        },
        {
          "indexed": false,
          "internalType": "bool",
          "name": "approved",
          "type": "bool"
        }
      ],
      "name": "ApprovalForAll",
      "type": "event"
    },
    {
      "anonymous": false,
      "inputs": [
        {
          "indexed": false,
          "internalType": "uint256",
          "name": "newBossHp",
          "type": "uint256"
        },
        {
          "indexed": false,
          "internalType": "uint256",
          "name": "newPlayerHp",
          "type": "uint256"
        }
      ],
      "name": "AttackComplete",
      "type": "event"
    },
    {
      "anonymous": false,
      "inputs": [
        {
          "indexed": false,
          "internalType": "address",
          "name": "sender",
          "type": "address"
        },
        {
          "indexed": false,
          "internalType": "uint256",
          "name": "tokenId",
          "type": "uint256"
        },
        {
          "indexed": false,
          "internalType": "uint256",
          "name": "characterIndex",
          "type": "uint256"
        }
      ],
      "name": "CharacterNFTMinted",
      "type": "event"
    },
    {
      "anonymous": false,
      "inputs": [
        {
          "indexed": true,
          "internalType": "address",
          "name": "from",
          "type": "address"
        },
        {
          "indexed": true,
          "internalType": "address",
          "name": "to",
          "type": "address"
        },
        {
          "indexed": true,
          "internalType": "uint256",
          "name": "tokenId",
          "type": "uint256"
        }
      ],
      "name": "Transfer",
      "type": "event"
    },
    {
      "inputs": [
        {
          "internalType": "address",
          "name": "to",
          "type": "address"
        },
        {
          "internalType": "uint256",
          "name": "tokenId",
          "type": "uint256"
        }
      ],
      "name": "approve",
      "outputs": [],
      "stateMutability": "nonpayable",
      "type": "function"
    },
    {
      "inputs": [],
      "name": "attackBoss",
      "outputs": [],
      "stateMutability": "nonpayable",
      "type": "function"
    },
    {
      "inputs": [
        {
          "internalType": "address",
          "name": "owner",
          "type": "address"
        }
      ],
      "name": "balanceOf",
      "outputs": [
        {
          "internalType": "uint256",
          "name": "",
          "type": "uint256"
        }
      ],
      "stateMutability": "view",
      "type": "function"
    },
    {
      "inputs": [],
      "name": "bossBear",
      "outputs": [
        {
          "internalType": "string",
          "name": "name",
          "type": "string"
        },
        {
          "internalType": "string",
          "name": "imageURI",
          "type": "string"
        },
        {
          "internalType": "uint256",
          "name": "hp",
          "type": "uint256"
        },
        {
          "internalType": "uint256",
          "name": "maxHp",
          "type": "uint256"
        },
        {
          "internalType": "uint256",
          "name": "attackDamage",
          "type": "uint256"
        }
      ],
      "stateMutability": "view",
      "type": "function"
    },
    {
      "inputs": [],
      "name": "checkIsUserHasNFT",
      "outputs": [
        {
          "components": [
            {
              "internalType": "uint256",
              "name": "characterIndex",
              "type": "uint256"
            },
            {
              "internalType": "string",
              "name": "name",
              "type": "string"
            },
            {
              "internalType": "string",
              "name": "imageURI",
              "type": "string"
            },
            {
              "internalType": "string",
              "name": "specialMove",
              "type": "string"
            },
            {
              "internalType": "uint256",
              "name": "hp",
              "type": "uint256"
            },
            {
              "internalType": "uint256",
              "name": "maxHp",
              "type": "uint256"
            },
            {
              "internalType": "uint256",
              "name": "armor",
              "type": "uint256"
            },
            {
              "internalType": "uint256",
              "name": "attackDamage",
              "type": "uint256"
            }
          ],
          "internalType": "struct BabbyBees.CharacterAttributes",
          "name": "",
          "type": "tuple"
        }
      ],
      "stateMutability": "view",
      "type": "function"
    },
    {
      "inputs": [],
      "name": "getAllDefaultCharacters",
      "outputs": [
        {
          "components": [
            {
              "internalType": "uint256",
              "name": "characterIndex",
              "type": "uint256"
            },
            {
              "internalType": "string",
              "name": "name",
              "type": "string"
            },
            {
              "internalType": "string",
              "name": "imageURI",
              "type": "string"
            },
            {
              "internalType": "string",
              "name": "specialMove",
              "type": "string"
            },
            {
              "internalType": "uint256",
              "name": "hp",
              "type": "uint256"
            },
            {
              "internalType": "uint256",
              "name": "maxHp",
              "type": "uint256"
            },
            {
              "internalType": "uint256",
              "name": "armor",
              "type": "uint256"
            },
            {
              "internalType": "uint256",
              "name": "attackDamage",
              "type": "uint256"
            }
          ],
          "internalType": "struct BabbyBees.CharacterAttributes[]",
          "name": "",
          "type": "tuple[]"
        }
      ],
      "stateMutability": "view",
      "type": "function"
    },
    {
      "inputs": [
        {
          "internalType": "uint256",
          "name": "tokenId",
          "type": "uint256"
        }
      ],
      "name": "getApproved",
      "outputs": [
        {
          "internalType": "address",
          "name": "",
          "type": "address"
        }
      ],
      "stateMutability": "view",
      "type": "function"
    },
    {
      "inputs": [],
      "name": "getBossBear",
      "outputs": [
        {
          "components": [
            {
              "internalType": "string",
              "name": "name",
              "type": "string"
            },
            {
              "internalType": "string",
              "name": "imageURI",
              "type": "string"
            },
            {
              "internalType": "uint256",
              "name": "hp",
              "type": "uint256"
            },
            {
              "internalType": "uint256",
              "name": "maxHp",
              "type": "uint256"
            },
            {
              "internalType": "uint256",
              "name": "attackDamage",
              "type": "uint256"
            }
          ],
          "internalType": "struct BabbyBees.BossBear",
          "name": "",
          "type": "tuple"
        }
      ],
      "stateMutability": "view",
      "type": "function"
    },
    {
      "inputs": [
        {
          "internalType": "address",
          "name": "owner",
          "type": "address"
        },
        {
          "internalType": "address",
          "name": "operator",
          "type": "address"
        }
      ],
      "name": "isApprovedForAll",
      "outputs": [
        {
          "internalType": "bool",
          "name": "",
          "type": "bool"
        }
      ],
      "stateMutability": "view",
      "type": "function"
    },
    {
      "inputs": [
        {
          "internalType": "uint256",
          "name": "_characterIndex",
          "type": "uint256"
        }
      ],
      "name": "mintCharacterNFT",
      "outputs": [],
      "stateMutability": "nonpayable",
      "type": "function"
    },
    {
      "inputs": [],
      "name": "name",
      "outputs": [
        {
          "internalType": "string",
          "name": "",
          "type": "string"
        }
      ],
      "stateMutability": "view",
      "type": "function"
    },
    {
      "inputs": [
        {
          "internalType": "uint256",
          "name": "",
          "type": "uint256"
        }
      ],
      "name": "nftHolderAttributes",
      "outputs": [
        {
          "internalType": "uint256",
          "name": "characterIndex",
          "type": "uint256"
        },
        {
          "internalType": "string",
          "name": "name",
          "type": "string"
        },
        {
          "internalType": "string",
          "name": "imageURI",
          "type": "string"
        },
        {
          "internalType": "string",
          "name": "specialMove",
          "type": "string"
        },
        {
          "internalType": "uint256",
          "name": "hp",
          "type": "uint256"
        },
        {
          "internalType": "uint256",
          "name": "maxHp",
          "type": "uint256"
        },
        {
          "internalType": "uint256",
          "name": "armor",
          "type": "uint256"
        },
        {
          "internalType": "uint256",
          "name": "attackDamage",
          "type": "uint256"
        }
      ],
      "stateMutability": "view",
      "type": "function"
    },
    {
      "inputs": [
        {
          "internalType": "address",
          "name": "",
          "type": "address"
        }
      ],
      "name": "nftHolders",
      "outputs": [
        {
          "internalType": "uint256",
          "name": "",
          "type": "uint256"
        }
      ],
      "stateMutability": "view",
      "type": "function"
    },
    {
      "inputs": [
        {
          "internalType": "uint256",
          "name": "tokenId",
          "type": "uint256"
        }
      ],
      "name": "ownerOf",
      "outputs": [
        {
          "internalType": "address",
          "name": "",
          "type": "address"
        }
      ],
      "stateMutability": "view",
      "type": "function"
    },
    {
      "inputs": [
        {
          "internalType": "address",
          "name": "from",
          "type": "address"
        },
        {
          "internalType": "address",
          "name": "to",
          "type": "address"
        },
        {
          "internalType": "uint256",
          "name": "tokenId",
          "type": "uint256"
        }
      ],
      "name": "safeTransferFrom",
      "outputs": [],
      "stateMutability": "nonpayable",
      "type": "function"
    },
    {
      "inputs": [
        {
          "internalType": "address",
          "name": "from",
          "type": "address"
        },
        {
          "internalType": "address",
          "name": "to",
          "type": "address"
        },
        {
          "internalType": "uint256",
          "name": "tokenId",
          "type": "uint256"
        },
        {
          "internalType": "bytes",
          "name": "_data",
          "type": "bytes"
        }
      ],
      "name": "safeTransferFrom",
      "outputs": [],
      "stateMutability": "nonpayable",
      "type": "function"
    },
    {
      "inputs": [
        {
          "internalType": "address",
          "name": "operator",
          "type": "address"
        },
        {
          "internalType": "bool",
          "name": "approved",
          "type": "bool"
        }
      ],
      "name": "setApprovalForAll",
      "outputs": [],
      "stateMutability": "nonpayable",
      "type": "function"
    },
    {
      "inputs": [
        {
          "internalType": "bytes4",
          "name": "interfaceId",
          "type": "bytes4"
        }
      ],
      "name": "supportsInterface",
      "outputs": [
        {
          "internalType": "bool",
          "name": "",
          "type": "bool"
        }
      ],
      "stateMutability": "view",
      "type": "function"
    },
    {
      "inputs": [],
      "name": "symbol",
      "outputs": [
        {
          "internalType": "string",
          "name": "",
          "type": "string"
        }
      ],
      "stateMutability": "view",
      "type": "function"
    },
    {
      "inputs": [
        {
          "internalType": "uint256",
          "name": "_tokenId",
          "type": "uint256"
        }
      ],
      "name": "tokenURI",
      "outputs": [
        {
          "internalType": "string",
          "name": "",
          "type": "string"
        }
      ],
      "stateMutability": "view",
      "type": "function"
    },
    {
      "inputs": [
        {
          "internalType": "address",
          "name": "from",
          "type": "address"
        },
        {
          "internalType": "address",
          "name": "to",
          "type": "address"
        },
        {
          "internalType": "uint256",
          "name": "tokenId",
          "type": "uint256"
        }
      ],
      "name": "transferFrom",
      "outputs": [],
      "stateMutability": "nonpayable",
      "type": "function"
    }
  ],
  "bytecode": "0x60806040523480156200001157600080fd5b5060405162005d1e38038062005d1e833981810160405281019062000037919062000bb8565b6040518060400160405280600981526020017f42616262794265657300000000000000000000000000000000000000000000008152506040518060400160405280600481526020017f42424253000000000000000000000000000000000000000000000000000000008152508160009080519060200190620000bb9291906200094b565b508060019080519060200190620000d49291906200094b565b5050506040518060a0016040528085815260200184815260200183815260200183815260200182815250600660008201518160000190805190602001906200011e9291906200094b565b5060208201518160010190805190602001906200013d9291906200094b565b50604082015181600201556060820151816003015560808201518160040155905050620002c06040518060600160405280602a815260200162005cf4602a9139600660000180546200018f9062000f45565b80601f0160208091040260200160405190810160405280929190818152602001828054620001bd9062000f45565b80156200020e5780601f10620001e2576101008083540402835291602001916200020e565b820191906000526020600020905b815481529060010190602001808311620001f057829003601f168201915b5050505050600660020154600660010180546200022b9062000f45565b80601f0160208091040260200160405190810160405280929190818152602001828054620002599062000f45565b8015620002aa5780601f106200027e57610100808354040283529160200191620002aa565b820191906000526020600020905b8154815290600101906020018083116200028c57829003601f168201915b50505050506200086060201b620021041760201c565b60005b8a518110156200083857600c6040518061010001604052808381526020018d84815181106200031b577f4e487b7100000000000000000000000000000000000000000000000000000000600052603260045260246000fd5b602002602001015181526020018c848151811062000362577f4e487b7100000000000000000000000000000000000000000000000000000000600052603260045260246000fd5b602002602001015181526020018b8481518110620003a9577f4e487b7100000000000000000000000000000000000000000000000000000000600052603260045260246000fd5b602002602001015181526020018a8481518110620003f0577f4e487b7100000000000000000000000000000000000000000000000000000000600052603260045260246000fd5b602002602001015181526020018a848151811062000437577f4e487b7100000000000000000000000000000000000000000000000000000000600052603260045260246000fd5b602002602001015181526020018984815181106200047e577f4e487b7100000000000000000000000000000000000000000000000000000000600052603260045260246000fd5b60200260200101518152602001888481518110620004c5577f4e487b7100000000000000000000000000000000000000000000000000000000600052603260045260246000fd5b60200260200101518152509080600181540180825580915050600190039060005260206000209060080201600090919091909150600082015181600001556020820151816001019080519060200190620005219291906200094b565b506040820151816002019080519060200190620005409291906200094b565b5060608201518160030190805190602001906200055f9291906200094b565b506080820151816004015560a0820151816005015560c0820151816006015560e0820151816007015550506000600c8281548110620005c7577f4e487b7100000000000000000000000000000000000000000000000000000000600052603260045260246000fd5b90600052602060002090600802016040518061010001604052908160008201548152602001600182018054620005fd9062000f45565b80601f01602080910402602001604051908101604052809291908181526020018280546200062b9062000f45565b80156200067c5780601f1062000650576101008083540402835291602001916200067c565b820191906000526020600020905b8154815290600101906020018083116200065e57829003601f168201915b50505050508152602001600282018054620006979062000f45565b80601f0160208091040260200160405190810160405280929190818152602001828054620006c59062000f45565b8015620007165780601f10620006ea5761010080835404028352916020019162000716565b820191906000526020600020905b815481529060010190602001808311620006f857829003601f168201915b50505050508152602001600382018054620007319062000f45565b80601f01602080910402602001604051908101604052809291908181526020018280546200075f9062000f45565b8015620007b05780601f106200078457610100808354040283529160200191620007b0565b820191906000526020600020905b8154815290600101906020018083116200079257829003601f168201915b5050505050815260200160048201548152602001600582015481526020016006820154815260200160078201548152505090506200082160405180606001604052806025815260200162005ccf602591398260200151836080015184604001516200086060201b620021041760201c565b5080806200082f9062000f7b565b915050620002c3565b5062000850600b6200090c60201b620021a61760201c565b5050505050505050505062001081565b62000906848484846040516024016200087d949392919062000dc2565b6040516020818303038152906040527f8d142cdd000000000000000000000000000000000000000000000000000000007bffffffffffffffffffffffffffffffffffffffffffffffffffffffff19166020820180517bffffffffffffffffffffffffffffffffffffffffffffffffffffffff83818316178352505050506200092260201b60201c565b50505050565b6001816000016000828254019250508190555050565b60008151905060006a636f6e736f6c652e6c6f679050602083016000808483855afa5050505050565b828054620009599062000f45565b90600052602060002090601f0160209004810192826200097d5760008555620009c9565b82601f106200099857805160ff1916838001178555620009c9565b82800160010185558215620009c9579182015b82811115620009c8578251825591602001919060010190620009ab565b5b509050620009d89190620009dc565b5090565b5b80821115620009f7576000816000905550600101620009dd565b5090565b600062000a1262000a0c8462000e58565b62000e24565b9050808382526020820190508260005b8581101562000a56578151850162000a3b888262000b74565b84526020840193506020830192505060018101905062000a22565b5050509392505050565b600062000a7762000a718462000e87565b62000e24565b9050808382526020820190508285602086028201111562000a9757600080fd5b60005b8581101562000acb578162000ab0888262000ba1565b84526020840193506020830192505060018101905062000a9a565b5050509392505050565b600062000aec62000ae68462000eb6565b62000e24565b90508281526020810184848401111562000b0557600080fd5b62000b1284828562000f0f565b509392505050565b600082601f83011262000b2c57600080fd5b815162000b3e848260208601620009fb565b91505092915050565b600082601f83011262000b5957600080fd5b815162000b6b84826020860162000a60565b91505092915050565b600082601f83011262000b8657600080fd5b815162000b9884826020860162000ad5565b91505092915050565b60008151905062000bb28162001067565b92915050565b6000806000806000806000806000806101408b8d03121562000bd957600080fd5b60008b015167ffffffffffffffff81111562000bf457600080fd5b62000c028d828e0162000b1a565b9a505060208b015167ffffffffffffffff81111562000c2057600080fd5b62000c2e8d828e0162000b1a565b99505060408b015167ffffffffffffffff81111562000c4c57600080fd5b62000c5a8d828e0162000b1a565b98505060608b015167ffffffffffffffff81111562000c7857600080fd5b62000c868d828e0162000b47565b97505060808b015167ffffffffffffffff81111562000ca457600080fd5b62000cb28d828e0162000b47565b96505060a08b015167ffffffffffffffff81111562000cd057600080fd5b62000cde8d828e0162000b47565b95505060c08b015167ffffffffffffffff81111562000cfc57600080fd5b62000d0a8d828e0162000b74565b94505060e08b015167ffffffffffffffff81111562000d2857600080fd5b62000d368d828e0162000b74565b93505061010062000d4a8d828e0162000ba1565b92505061012062000d5e8d828e0162000ba1565b9150509295989b9194979a5092959850565b600062000d7d8262000ee9565b62000d89818562000ef4565b935062000d9b81856020860162000f0f565b62000da68162001056565b840191505092915050565b62000dbc8162000f05565b82525050565b6000608082019050818103600083015262000dde818762000d70565b9050818103602083015262000df4818662000d70565b905062000e05604083018562000db1565b818103606083015262000e19818462000d70565b905095945050505050565b6000604051905081810181811067ffffffffffffffff8211171562000e4e5762000e4d62001027565b5b8060405250919050565b600067ffffffffffffffff82111562000e765762000e7562001027565b5b602082029050602081019050919050565b600067ffffffffffffffff82111562000ea55762000ea462001027565b5b602082029050602081019050919050565b600067ffffffffffffffff82111562000ed45762000ed362001027565b5b601f19601f8301169050602081019050919050565b600081519050919050565b600082825260208201905092915050565b6000819050919050565b60005b8381101562000f2f57808201518184015260208101905062000f12565b8381111562000f3f576000848401525b50505050565b6000600282049050600182168062000f5e57607f821691505b6020821081141562000f755762000f7462000ff8565b5b50919050565b600062000f888262000f05565b91507fffffffffffffffffffffffffffffffffffffffffffffffffffffffffffffffff82141562000fbe5762000fbd62000fc9565b5b600182019050919050565b7f4e487b7100000000000000000000000000000000000000000000000000000000600052601160045260246000fd5b7f4e487b7100000000000000000000000000000000000000000000000000000000600052602260045260246000fd5b7f4e487b7100000000000000000000000000000000000000000000000000000000600052604160045260246000fd5b6000601f19601f8301169050919050565b620010728162000f05565b81146200107e57600080fd5b50565b614c3e80620010916000396000f3fe608060405234801561001057600080fd5b50600436106101375760003560e01c80637df124a1116100b8578063b953084e1161007c578063b953084e1461036b578063c87b56dd14610389578063d4f24c5b146103b9578063df73fb1a146103c3578063e985e9c5146103e1578063f8b81ef71461041157610137565b80637df124a1146102ae57806395d89b41146102de57806398da4c95146102fc578063a22cb46514610333578063b88d4fde1461034f57610137565b806323b872dd116100ff57806323b872dd146101f857806342842e0e146102145780636352211e14610230578063688e34b81461026057806370a082311461027e57610137565b806301039aa41461013c57806301ffc9a71461015e57806306fdde031461018e578063081812fc146101ac578063095ea7b3146101dc575b600080fd5b61014461042d565b6040516101559594939291906142b9565b60405180910390f35b610178600480360381019061017391906133ed565b610561565b60405161018591906141cf565b60405180910390f35b610196610643565b6040516101a391906141ea565b60405180910390f35b6101c660048036038101906101c1919061343f565b6106d5565b6040516101d3919061410f565b60405180910390f35b6101f660048036038101906101f191906133b1565b61075a565b005b610212600480360381019061020d91906132ab565b610872565b005b61022e600480360381019061022991906132ab565b6108d2565b005b61024a6004803603810190610245919061343f565b6108f2565b604051610257919061410f565b60405180910390f35b6102686109a4565b604051610275919061458a565b60405180910390f35b61029860048036038101906102939190613246565b610c19565b6040516102a591906145ac565b60405180910390f35b6102c860048036038101906102c39190613246565b610cd1565b6040516102d591906145ac565b60405180910390f35b6102e6610ce9565b6040516102f391906141ea565b60405180910390f35b6103166004803603810190610311919061343f565b610d7b565b60405161032a9897969594939291906145c7565b60405180910390f35b61034d60048036038101906103489190613375565b610f5b565b005b610369600480360381019061036491906132fa565b6110dc565b005b61037361113e565b60405161038091906141ad565b60405180910390f35b6103a3600480360381019061039e919061343f565b611386565b6040516103b091906141ea565b60405180910390f35b6103c161163e565b005b6103cb6119ce565b6040516103d89190614568565b60405180910390f35b6103fb60048036038101906103f6919061326f565b611b2a565b60405161040891906141cf565b60405180910390f35b61042b6004803603810190610426919061343f565b611bbe565b005b600680600001805461043e9061493c565b80601f016020809104026020016040519081016040528092919081815260200182805461046a9061493c565b80156104b75780601f1061048c576101008083540402835291602001916104b7565b820191906000526020600020905b81548152906001019060200180831161049a57829003601f168201915b5050505050908060010180546104cc9061493c565b80601f01602080910402602001604051908101604052809291908181526020018280546104f89061493c565b80156105455780601f1061051a57610100808354040283529160200191610545565b820191906000526020600020905b81548152906001019060200180831161052857829003601f168201915b5050505050908060020154908060030154908060040154905085565b60007f80ac58cd000000000000000000000000000000000000000000000000000000007bffffffffffffffffffffffffffffffffffffffffffffffffffffffff1916827bffffffffffffffffffffffffffffffffffffffffffffffffffffffff1916148061062c57507f5b5e139f000000000000000000000000000000000000000000000000000000007bffffffffffffffffffffffffffffffffffffffffffffffffffffffff1916827bffffffffffffffffffffffffffffffffffffffffffffffffffffffff1916145b8061063c575061063b826121bc565b5b9050919050565b6060600080546106529061493c565b80601f016020809104026020016040519081016040528092919081815260200182805461067e9061493c565b80156106cb5780601f106106a0576101008083540402835291602001916106cb565b820191906000526020600020905b8154815290600101906020018083116106ae57829003601f168201915b5050505050905090565b60006106e082612226565b61071f576040517f08c379a0000000000000000000000000000000000000000000000000000000008152600401610716906144e8565b60405180910390fd5b6004600083815260200190815260200160002060009054906101000a900473ffffffffffffffffffffffffffffffffffffffff169050919050565b6000610765826108f2565b90508073ffffffffffffffffffffffffffffffffffffffff168373ffffffffffffffffffffffffffffffffffffffff1614156107d6576040517f08c379a00000000000000000000000000000000000000000000000000000000081526004016107cd90614528565b60405180910390fd5b8073ffffffffffffffffffffffffffffffffffffffff166107f5612292565b73ffffffffffffffffffffffffffffffffffffffff16148061082457506108238161081e612292565b611b2a565b5b610863576040517f08c379a000000000000000000000000000000000000000000000000000000000815260040161085a90614448565b60405180910390fd5b61086d838361229a565b505050565b61088361087d612292565b82612353565b6108c2576040517f08c379a00000000000000000000000000000000000000000000000000000000081526004016108b990614548565b60405180910390fd5b6108cd838383612431565b505050565b6108ed838383604051806020016040528060008152506110dc565b505050565b6000806002600084815260200190815260200160002060009054906101000a900473ffffffffffffffffffffffffffffffffffffffff169050600073ffffffffffffffffffffffffffffffffffffffff168173ffffffffffffffffffffffffffffffffffffffff16141561099b576040517f08c379a000000000000000000000000000000000000000000000000000000000815260040161099290614488565b60405180910390fd5b80915050919050565b6109ac61305e565b6000600e60003373ffffffffffffffffffffffffffffffffffffffff1673ffffffffffffffffffffffffffffffffffffffff1681526020019081526020016000205490506000811115610c0857600d60008281526020019081526020016000206040518061010001604052908160008201548152602001600182018054610a329061493c565b80601f0160208091040260200160405190810160405280929190818152602001828054610a5e9061493c565b8015610aab5780601f10610a8057610100808354040283529160200191610aab565b820191906000526020600020905b815481529060010190602001808311610a8e57829003601f168201915b50505050508152602001600282018054610ac49061493c565b80601f0160208091040260200160405190810160405280929190818152602001828054610af09061493c565b8015610b3d5780601f10610b1257610100808354040283529160200191610b3d565b820191906000526020600020905b815481529060010190602001808311610b2057829003601f168201915b50505050508152602001600382018054610b569061493c565b80601f0160208091040260200160405190810160405280929190818152602001828054610b829061493c565b8015610bcf5780601f10610ba457610100808354040283529160200191610bcf565b820191906000526020600020905b815481529060010190602001808311610bb257829003601f168201915b50505050508152602001600482015481526020016005820154815260200160068201548152602001600782015481525050915050610c16565b610c1061305e565b80925050505b90565b60008073ffffffffffffffffffffffffffffffffffffffff168273ffffffffffffffffffffffffffffffffffffffff161415610c8a576040517f08c379a0000000000000000000000000000000000000000000000000000000008152600401610c8190614468565b60405180910390fd5b600360008373ffffffffffffffffffffffffffffffffffffffff1673ffffffffffffffffffffffffffffffffffffffff168152602001908152602001600020549050919050565b600e6020528060005260406000206000915090505481565b606060018054610cf89061493c565b80601f0160208091040260200160405190810160405280929190818152602001828054610d249061493c565b8015610d715780601f10610d4657610100808354040283529160200191610d71565b820191906000526020600020905b815481529060010190602001808311610d5457829003601f168201915b5050505050905090565b600d602052806000526040600020600091509050806000015490806001018054610da49061493c565b80601f0160208091040260200160405190810160405280929190818152602001828054610dd09061493c565b8015610e1d5780601f10610df257610100808354040283529160200191610e1d565b820191906000526020600020905b815481529060010190602001808311610e0057829003601f168201915b505050505090806002018054610e329061493c565b80601f0160208091040260200160405190810160405280929190818152602001828054610e5e9061493c565b8015610eab5780601f10610e8057610100808354040283529160200191610eab565b820191906000526020600020905b815481529060010190602001808311610e8e57829003601f168201915b505050505090806003018054610ec09061493c565b80601f0160208091040260200160405190810160405280929190818152602001828054610eec9061493c565b8015610f395780601f10610f0e57610100808354040283529160200191610f39565b820191906000526020600020905b815481529060010190602001808311610f1c57829003601f168201915b5050505050908060040154908060050154908060060154908060070154905088565b610f63612292565b73ffffffffffffffffffffffffffffffffffffffff168273ffffffffffffffffffffffffffffffffffffffff161415610fd1576040517f08c379a0000000000000000000000000000000000000000000000000000000008152600401610fc8906143e8565b60405180910390fd5b8060056000610fde612292565b73ffffffffffffffffffffffffffffffffffffffff1673ffffffffffffffffffffffffffffffffffffffff16815260200190815260200160002060008473ffffffffffffffffffffffffffffffffffffffff1673ffffffffffffffffffffffffffffffffffffffff16815260200190815260200160002060006101000a81548160ff0219169083151502179055508173ffffffffffffffffffffffffffffffffffffffff1661108b612292565b73ffffffffffffffffffffffffffffffffffffffff167f17307eab39ab6107e8899845ad3d59bd9653f200f220920489ca2b5937696c31836040516110d091906141cf565b60405180910390a35050565b6110ed6110e7612292565b83612353565b61112c576040517f08c379a000000000000000000000000000000000000000000000000000000000815260040161112390614548565b60405180910390fd5b6111388484848461268d565b50505050565b6060600c805480602002602001604051908101604052809291908181526020016000905b8282101561137d578382906000526020600020906008020160405180610100016040529081600082015481526020016001820180546111a09061493c565b80601f01602080910402602001604051908101604052809291908181526020018280546111cc9061493c565b80156112195780601f106111ee57610100808354040283529160200191611219565b820191906000526020600020905b8154815290600101906020018083116111fc57829003601f168201915b505050505081526020016002820180546112329061493c565b80601f016020809104026020016040519081016040528092919081815260200182805461125e9061493c565b80156112ab5780601f10611280576101008083540402835291602001916112ab565b820191906000526020600020905b81548152906001019060200180831161128e57829003601f168201915b505050505081526020016003820180546112c49061493c565b80601f01602080910402602001604051908101604052809291908181526020018280546112f09061493c565b801561133d5780601f106113125761010080835404028352916020019161133d565b820191906000526020600020905b81548152906001019060200180831161132057829003601f168201915b5050505050815260200160048201548152602001600582015481526020016006820154815260200160078201548152505081526020019060010190611162565b50505050905090565b60606000600d600084815260200190815260200160002060405180610100016040529081600082015481526020016001820180546113c39061493c565b80601f01602080910402602001604051908101604052809291908181526020018280546113ef9061493c565b801561143c5780601f106114115761010080835404028352916020019161143c565b820191906000526020600020905b81548152906001019060200180831161141f57829003601f168201915b505050505081526020016002820180546114559061493c565b80601f01602080910402602001604051908101604052809291908181526020018280546114819061493c565b80156114ce5780601f106114a3576101008083540402835291602001916114ce565b820191906000526020600020905b8154815290600101906020018083116114b157829003601f168201915b505050505081526020016003820180546114e79061493c565b80601f01602080910402602001604051908101604052809291908181526020018280546115139061493c565b80156115605780601f1061153557610100808354040283529160200191611560565b820191906000526020600020905b81548152906001019060200180831161154357829003601f168201915b50505050508152602001600482015481526020016005820154815260200160068201548152602001600782015481525050905060006115a282608001516126e9565b905060006115b38360a001516126e9565b905060006115c48460e001516126e9565b9050600061160a85602001516115d9896126e9565b87604001518787876040516020016115f696959493929190614048565b604051602081830303815290604052612896565b905060008160405160200161161f91906140ed565b6040516020818303038152906040529050809650505050505050919050565b6000600e60003373ffffffffffffffffffffffffffffffffffffffff1673ffffffffffffffffffffffffffffffffffffffff1681526020019081526020016000205490506000600d600083815260200190815260200160002090506117516040518060600160405280603c8152602001614bcd603c91398260010180546116c49061493c565b80601f01602080910402602001604051908101604052809291908181526020018280546116f09061493c565b801561173d5780601f106117125761010080835404028352916020019161173d565b820191906000526020600020905b81548152906001019060200180831161172057829003601f168201915b505050505083600401548460070154612a54565b6118296040518060400160405280601b81526020017f426f73732025732068617320257320485020616e6420257320414400000000008152506006600001805461179a9061493c565b80601f01602080910402602001604051908101604052809291908181526020018280546117c69061493c565b80156118135780601f106117e857610100808354040283529160200191611813565b820191906000526020600020905b8154815290600101906020018083116117f657829003601f168201915b5050505050600660020154600660040154612a54565b6000816004015411611870576040517f08c379a0000000000000000000000000000000000000000000000000000000008152600401611867906144a8565b60405180910390fd5b6000600660020154116118b8576040517f08c379a00000000000000000000000000000000000000000000000000000000081526004016118af90614408565b60405180910390fd5b806007015460066002015410156118d95760006006600201819055506118fa565b8060070154600660020160008282546118f29190614852565b925050819055505b6006600401548160040154101561191a576000816004018190555061193b565b6006600401548160040160008282546119339190614852565b925050819055505b611962604051806060016040528060258152602001614b1260259139600660020154612af6565b611988604051806060016040528060288152602001614b77602891398260040154612af6565b7f838ab28464562786a6c4ab2311964b82fa60bd9b14aa7e856af1f3f18d41a41460066002015482600401546040516119c292919061465a565b60405180910390a15050565b6119d66130a3565b60066040518060a00160405290816000820180546119f39061493c565b80601f0160208091040260200160405190810160405280929190818152602001828054611a1f9061493c565b8015611a6c5780601f10611a4157610100808354040283529160200191611a6c565b820191906000526020600020905b815481529060010190602001808311611a4f57829003601f168201915b50505050508152602001600182018054611a859061493c565b80601f0160208091040260200160405190810160405280929190818152602001828054611ab19061493c565b8015611afe5780601f10611ad357610100808354040283529160200191611afe565b820191906000526020600020905b815481529060010190602001808311611ae157829003601f168201915b505050505081526020016002820154815260200160038201548152602001600482015481525050905090565b6000600560008473ffffffffffffffffffffffffffffffffffffffff1673ffffffffffffffffffffffffffffffffffffffff16815260200190815260200160002060008373ffffffffffffffffffffffffffffffffffffffff1673ffffffffffffffffffffffffffffffffffffffff16815260200190815260200160002060009054906101000a900460ff16905092915050565b6000611bca600b612b92565b9050611bd63382612ba0565b604051806101000160405280838152602001600c8481548110611c22577f4e487b7100000000000000000000000000000000000000000000000000000000600052603260045260246000fd5b90600052602060002090600802016001018054611c3e9061493c565b80601f0160208091040260200160405190810160405280929190818152602001828054611c6a9061493c565b8015611cb75780601f10611c8c57610100808354040283529160200191611cb7565b820191906000526020600020905b815481529060010190602001808311611c9a57829003601f168201915b50505050508152602001600c8481548110611cfb577f4e487b7100000000000000000000000000000000000000000000000000000000600052603260045260246000fd5b90600052602060002090600802016002018054611d179061493c565b80601f0160208091040260200160405190810160405280929190818152602001828054611d439061493c565b8015611d905780601f10611d6557610100808354040283529160200191611d90565b820191906000526020600020905b815481529060010190602001808311611d7357829003601f168201915b50505050508152602001600c8481548110611dd4577f4e487b7100000000000000000000000000000000000000000000000000000000600052603260045260246000fd5b90600052602060002090600802016003018054611df09061493c565b80601f0160208091040260200160405190810160405280929190818152602001828054611e1c9061493c565b8015611e695780601f10611e3e57610100808354040283529160200191611e69565b820191906000526020600020905b815481529060010190602001808311611e4c57829003601f168201915b50505050508152602001600c8481548110611ead577f4e487b7100000000000000000000000000000000000000000000000000000000600052603260045260246000fd5b9060005260206000209060080201600401548152602001600c8481548110611efe577f4e487b7100000000000000000000000000000000000000000000000000000000600052603260045260246000fd5b9060005260206000209060080201600501548152602001600c8481548110611f4f577f4e487b7100000000000000000000000000000000000000000000000000000000600052603260045260246000fd5b9060005260206000209060080201600601548152602001600c8481548110611fa0577f4e487b7100000000000000000000000000000000000000000000000000000000600052603260045260246000fd5b906000526020600020906008020160070154815250600d6000838152602001908152602001600020600082015181600001556020820151816001019080519060200190611fee9291906130d2565b50604082015181600201908051906020019061200b9291906130d2565b5060608201518160030190805190602001906120289291906130d2565b506080820151816004015560a0820151816005015560c0820151816006015560e082015181600701559050506120776040518060600160405280602e8152602001614b9f602e91398284612bbe565b80600e60003373ffffffffffffffffffffffffffffffffffffffff1673ffffffffffffffffffffffffffffffffffffffff168152602001908152602001600020819055506120c5600b6121a6565b7f4bc303fd457a97b4691b9af582ce71868a3d258638c8d4f8c60988a0f0bfb8cd3382846040516120f893929190614176565b60405180910390a15050565b6121a08484848460405160240161211e949392919061420c565b6040516020818303038152906040527f8d142cdd000000000000000000000000000000000000000000000000000000007bffffffffffffffffffffffffffffffffffffffffffffffffffffffff19166020820180517bffffffffffffffffffffffffffffffffffffffffffffffffffffffff8381831617835250505050612c5d565b50505050565b6001816000016000828254019250508190555050565b60007f01ffc9a7000000000000000000000000000000000000000000000000000000007bffffffffffffffffffffffffffffffffffffffffffffffffffffffff1916827bffffffffffffffffffffffffffffffffffffffffffffffffffffffff1916149050919050565b60008073ffffffffffffffffffffffffffffffffffffffff166002600084815260200190815260200160002060009054906101000a900473ffffffffffffffffffffffffffffffffffffffff1673ffffffffffffffffffffffffffffffffffffffff1614159050919050565b600033905090565b816004600083815260200190815260200160002060006101000a81548173ffffffffffffffffffffffffffffffffffffffff021916908373ffffffffffffffffffffffffffffffffffffffff160217905550808273ffffffffffffffffffffffffffffffffffffffff1661230d836108f2565b73ffffffffffffffffffffffffffffffffffffffff167f8c5be1e5ebec7d5bd14f71427d1e84f3dd0314c0f7b2291e5b200ac8c7c3b92560405160405180910390a45050565b600061235e82612226565b61239d576040517f08c379a000000000000000000000000000000000000000000000000000000000815260040161239490614428565b60405180910390fd5b60006123a8836108f2565b90508073ffffffffffffffffffffffffffffffffffffffff168473ffffffffffffffffffffffffffffffffffffffff16148061241757508373ffffffffffffffffffffffffffffffffffffffff166123ff846106d5565b73ffffffffffffffffffffffffffffffffffffffff16145b8061242857506124278185611b2a565b5b91505092915050565b8273ffffffffffffffffffffffffffffffffffffffff16612451826108f2565b73ffffffffffffffffffffffffffffffffffffffff16146124a7576040517f08c379a000000000000000000000000000000000000000000000000000000000815260040161249e90614508565b60405180910390fd5b600073ffffffffffffffffffffffffffffffffffffffff168273ffffffffffffffffffffffffffffffffffffffff161415612517576040517f08c379a000000000000000000000000000000000000000000000000000000000815260040161250e906143c8565b60405180910390fd5b612522838383612c86565b61252d60008261229a565b6001600360008573ffffffffffffffffffffffffffffffffffffffff1673ffffffffffffffffffffffffffffffffffffffff168152602001908152602001600020600082825461257d9190614852565b925050819055506001600360008473ffffffffffffffffffffffffffffffffffffffff1673ffffffffffffffffffffffffffffffffffffffff16815260200190815260200160002060008282546125d49190614771565b92505081905550816002600083815260200190815260200160002060006101000a81548173ffffffffffffffffffffffffffffffffffffffff021916908373ffffffffffffffffffffffffffffffffffffffff160217905550808273ffffffffffffffffffffffffffffffffffffffff168473ffffffffffffffffffffffffffffffffffffffff167fddf252ad1be2c89b69c2b068fc378daa952ba7f163c4a11628f55a4df523b3ef60405160405180910390a4505050565b612698848484612431565b6126a484848484612c8b565b6126e3576040517f08c379a00000000000000000000000000000000000000000000000000000000081526004016126da90614388565b60405180910390fd5b50505050565b60606000821415612731576040518060400160405280600181526020017f30000000000000000000000000000000000000000000000000000000000000008152509050612891565b600082905060005b6000821461276357808061274c9061496e565b915050600a8261275c91906147c7565b9150612739565b60008167ffffffffffffffff8111156127a5577f4e487b7100000000000000000000000000000000000000000000000000000000600052604160045260246000fd5b6040519080825280601f01601f1916602001820160405280156127d75781602001600182028036833780820191505090505b5090505b6000851461288a576001826127f09190614852565b9150600a856127ff91906149b7565b603061280b9190614771565b60f81b818381518110612847577f4e487b7100000000000000000000000000000000000000000000000000000000600052603260045260246000fd5b60200101907effffffffffffffffffffffffffffffffffffffffffffffffffffffffffffff1916908160001a905350600a8561288391906147c7565b94506127db565b8093505050505b919050565b606060008251905060008114156128bf5760405180602001604052806000815250915050612a4f565b600060036002836128d09190614771565b6128da91906147c7565b60046128e691906147f8565b905060006020826128f79190614771565b67ffffffffffffffff811115612936577f4e487b7100000000000000000000000000000000000000000000000000000000600052604160045260246000fd5b6040519080825280601f01601f1916602001820160405280156129685781602001600182028036833780820191505090505b5090506000604051806060016040528060408152602001614b37604091399050600181016020830160005b86811015612a0c5760038101905062ffffff818a015116603f8160121c168401518060081b905060ff603f83600c1c1686015116810190508060081b905060ff603f8360061c1686015116810190508060081b905060ff603f831686015116810190508060e01b90508084526004840193505050612993565b506003860660018114612a265760028114612a3657612a41565b613d3d60f01b6002830352612a41565b603d60f81b60018303525b508484525050819450505050505b919050565b612af084848484604051602401612a6e9493929190614266565b6040516020818303038152906040527fd5cf17d0000000000000000000000000000000000000000000000000000000007bffffffffffffffffffffffffffffffffffffffffffffffffffffffff19166020820180517bffffffffffffffffffffffffffffffffffffffffffffffffffffffff8381831617835250505050612c5d565b50505050565b612b8e8282604051602401612b0c92919061431a565b6040516020818303038152906040527f9710a9d0000000000000000000000000000000000000000000000000000000007bffffffffffffffffffffffffffffffffffffffffffffffffffffffff19166020820180517bffffffffffffffffffffffffffffffffffffffffffffffffffffffff8381831617835250505050612c5d565b5050565b600081600001549050919050565b612bba828260405180602001604052806000815250612e22565b5050565b612c58838383604051602401612bd69392919061434a565b6040516020818303038152906040527f969cdd03000000000000000000000000000000000000000000000000000000007bffffffffffffffffffffffffffffffffffffffffffffffffffffffff19166020820180517bffffffffffffffffffffffffffffffffffffffffffffffffffffffff8381831617835250505050612c5d565b505050565b60008151905060006a636f6e736f6c652e6c6f679050602083016000808483855afa5050505050565b505050565b6000612cac8473ffffffffffffffffffffffffffffffffffffffff16612e7d565b15612e15578373ffffffffffffffffffffffffffffffffffffffff1663150b7a02612cd5612292565b8786866040518563ffffffff1660e01b8152600401612cf7949392919061412a565b602060405180830381600087803b158015612d1157600080fd5b505af1925050508015612d4257506040513d601f19601f82011682018060405250810190612d3f9190613416565b60015b612dc5573d8060008114612d72576040519150601f19603f3d011682016040523d82523d6000602084013e612d77565b606091505b50600081511415612dbd576040517f08c379a0000000000000000000000000000000000000000000000000000000008152600401612db490614388565b60405180910390fd5b805181602001fd5b63150b7a0260e01b7bffffffffffffffffffffffffffffffffffffffffffffffffffffffff1916817bffffffffffffffffffffffffffffffffffffffffffffffffffffffff191614915050612e1a565b600190505b949350505050565b612e2c8383612e90565b612e396000848484612c8b565b612e78576040517f08c379a0000000000000000000000000000000000000000000000000000000008152600401612e6f90614388565b60405180910390fd5b505050565b600080823b905060008111915050919050565b600073ffffffffffffffffffffffffffffffffffffffff168273ffffffffffffffffffffffffffffffffffffffff161415612f00576040517f08c379a0000000000000000000000000000000000000000000000000000000008152600401612ef7906144c8565b60405180910390fd5b612f0981612226565b15612f49576040517f08c379a0000000000000000000000000000000000000000000000000000000008152600401612f40906143a8565b60405180910390fd5b612f5560008383612c86565b6001600360008473ffffffffffffffffffffffffffffffffffffffff1673ffffffffffffffffffffffffffffffffffffffff1681526020019081526020016000206000828254612fa59190614771565b92505081905550816002600083815260200190815260200160002060006101000a81548173ffffffffffffffffffffffffffffffffffffffff021916908373ffffffffffffffffffffffffffffffffffffffff160217905550808273ffffffffffffffffffffffffffffffffffffffff16600073ffffffffffffffffffffffffffffffffffffffff167fddf252ad1be2c89b69c2b068fc378daa952ba7f163c4a11628f55a4df523b3ef60405160405180910390a45050565b60405180610100016040528060008152602001606081526020016060815260200160608152602001600081526020016000815260200160008152602001600081525090565b6040518060a0016040528060608152602001606081526020016000815260200160008152602001600081525090565b8280546130de9061493c565b90600052602060002090601f0160209004810192826131005760008555613147565b82601f1061311957805160ff1916838001178555613147565b82800160010185558215613147579182015b8281111561314657825182559160200191906001019061312b565b5b5090506131549190613158565b5090565b5b80821115613171576000816000905550600101613159565b5090565b6000613188613183846146b4565b614683565b9050828152602081018484840111156131a057600080fd5b6131ab8482856148fa565b509392505050565b6000813590506131c281614ab5565b92915050565b6000813590506131d781614acc565b92915050565b6000813590506131ec81614ae3565b92915050565b60008151905061320181614ae3565b92915050565b600082601f83011261321857600080fd5b8135613228848260208601613175565b91505092915050565b60008135905061324081614afa565b92915050565b60006020828403121561325857600080fd5b6000613266848285016131b3565b91505092915050565b6000806040838503121561328257600080fd5b6000613290858286016131b3565b92505060206132a1858286016131b3565b9150509250929050565b6000806000606084860312156132c057600080fd5b60006132ce868287016131b3565b93505060206132df868287016131b3565b92505060406132f086828701613231565b9150509250925092565b6000806000806080858703121561331057600080fd5b600061331e878288016131b3565b945050602061332f878288016131b3565b935050604061334087828801613231565b925050606085013567ffffffffffffffff81111561335d57600080fd5b61336987828801613207565b91505092959194509250565b6000806040838503121561338857600080fd5b6000613396858286016131b3565b92505060206133a7858286016131c8565b9150509250929050565b600080604083850312156133c457600080fd5b60006133d2858286016131b3565b92505060206133e385828601613231565b9150509250929050565b6000602082840312156133ff57600080fd5b600061340d848285016131dd565b91505092915050565b60006020828403121561342857600080fd5b6000613436848285016131f2565b91505092915050565b60006020828403121561345157600080fd5b600061345f84828501613231565b91505092915050565b60006134748383613eae565b905092915050565b61348581614886565b82525050565b6000613496826146f4565b6134a08185614722565b9350836020820285016134b2856146e4565b8060005b858110156134ee57848403895281516134cf8582613468565b94506134da83614715565b925060208a019950506001810190506134b6565b50829750879550505050505092915050565b61350981614898565b82525050565b600061351a826146ff565b6135248185614733565b9350613534818560208601614909565b61353d81614aa4565b840191505092915050565b60006135538261470a565b61355d8185614744565b935061356d818560208601614909565b61357681614aa4565b840191505092915050565b600061358c8261470a565b6135968185614755565b93506135a6818560208601614909565b6135af81614aa4565b840191505092915050565b60006135c58261470a565b6135cf8185614766565b93506135df818560208601614909565b80840191505092915050565b60006135f8600b83614766565b91507f202d2d204e465420233a200000000000000000000000000000000000000000006000830152600b82019050919050565b6000613638603283614755565b91507f4552433732313a207472616e7366657220746f206e6f6e20455243373231526560008301527f63656976657220696d706c656d656e74657200000000000000000000000000006020830152604082019050919050565b600061369e605c83614766565b91507f222c20226465736372697074696f6e223a20225468697320697320616e204e4660008301527f542074686174206c6574732070656f706c6520706c617920696e20746865206760208301527f616d65204261626279204265657321222c2022696d616765223a2022000000006040830152605c82019050919050565b600061372a601c83614755565b91507f4552433732313a20746f6b656e20616c7265616479206d696e746564000000006000830152602082019050919050565b600061376a600e83614766565b91507f2c20226d61785f76616c7565223a0000000000000000000000000000000000006000830152600e82019050919050565b60006137aa602483614755565b91507f4552433732313a207472616e7366657220746f20746865207a65726f2061646460008301527f72657373000000000000000000000000000000000000000000000000000000006020830152604082019050919050565b6000613810601983614755565b91507f4552433732313a20617070726f766520746f2063616c6c6572000000000000006000830152602082019050919050565b6000613850604b83614755565b91507f4572726f723a204269672042616420426162627920426561722068617320626560008301527f656e206d757264657265642e20596f752063616e27742062656174206120646560208301527f61642e2e2e20626561722e0000000000000000000000000000000000000000006040830152606082019050919050565b60006138dc602c83614755565b91507f4552433732313a206f70657261746f7220717565727920666f72206e6f6e657860008301527f697374656e7420746f6b656e00000000000000000000000000000000000000006020830152604082019050919050565b6000613942603883614755565b91507f4552433732313a20617070726f76652063616c6c6572206973206e6f74206f7760008301527f6e6572206e6f7220617070726f76656420666f7220616c6c00000000000000006020830152604082019050919050565b60006139a8602a83614755565b91507f4552433732313a2062616c616e636520717565727920666f7220746865207a6560008301527f726f2061646472657373000000000000000000000000000000000000000000006020830152604082019050919050565b6000613a0e602983614755565b91507f4552433732313a206f776e657220717565727920666f72206e6f6e657869737460008301527f656e7420746f6b656e00000000000000000000000000000000000000000000006020830152604082019050919050565b6000613a74603c83614755565b91507f4572726f723a20636861726163746572206d757374206861766520485020746f60008301527f2061747461636b204269672042616420426162627920426561722121000000006020830152604082019050919050565b6000613ada600483614766565b91507f7d205d7d000000000000000000000000000000000000000000000000000000006000830152600482019050919050565b6000613b1a602083614755565b91507f4552433732313a206d696e7420746f20746865207a65726f20616464726573736000830152602082019050919050565b6000613b5a602c83614755565b91507f4552433732313a20617070726f76656420717565727920666f72206e6f6e657860008301527f697374656e7420746f6b656e00000000000000000000000000000000000000006020830152604082019050919050565b6000613bc0602983614755565b91507f4552433732313a207472616e73666572206f6620746f6b656e2074686174206960008301527f73206e6f74206f776e00000000000000000000000000000000000000000000006020830152604082019050919050565b6000613c26600a83614766565b91507f7b226e616d65223a2022000000000000000000000000000000000000000000006000830152600a82019050919050565b6000613c66602183614755565b91507f4552433732313a20617070726f76616c20746f2063757272656e74206f776e6560008301527f72000000000000000000000000000000000000000000000000000000000000006020830152604082019050919050565b6000613ccc601d83614766565b91507f646174613a6170706c69636174696f6e2f6a736f6e3b6261736536342c0000006000830152601d82019050919050565b6000613d0c603183614755565b91507f4552433732313a207472616e736665722063616c6c6572206973206e6f74206f60008301527f776e6572206e6f7220617070726f7665640000000000000000000000000000006020830152604082019050919050565b6000613d72603d83614766565b91507f222c202261747472696275746573223a205b207b202274726169745f7479706560008301527f223a20224865616c746820506f696e7473222c202276616c7565223a200000006020830152603d82019050919050565b6000613dd8602d83614766565b91507f7d2c207b202274726169745f74797065223a202241747461636b2044616d616760008301527f65222c202276616c7565223a20000000000000000000000000000000000000006020830152602d82019050919050565b600060a0830160008301518482036000860152613e4e8282613548565b91505060208301518482036020860152613e688282613548565b9150506040830151613e7d604086018261402a565b506060830151613e90606086018261402a565b506080830151613ea3608086018261402a565b508091505092915050565b600061010083016000830151613ec7600086018261402a565b5060208301518482036020860152613edf8282613548565b91505060408301518482036040860152613ef98282613548565b91505060608301518482036060860152613f138282613548565b9150506080830151613f28608086018261402a565b5060a0830151613f3b60a086018261402a565b5060c0830151613f4e60c086018261402a565b5060e0830151613f6160e086018261402a565b508091505092915050565b600061010083016000830151613f85600086018261402a565b5060208301518482036020860152613f9d8282613548565b91505060408301518482036040860152613fb78282613548565b91505060608301518482036060860152613fd18282613548565b9150506080830151613fe6608086018261402a565b5060a0830151613ff960a086018261402a565b5060c083015161400c60c086018261402a565b5060e083015161401f60e086018261402a565b508091505092915050565b614033816148f0565b82525050565b614042816148f0565b82525050565b600061405382613c19565b915061405f82896135ba565b915061406a826135eb565b915061407682886135ba565b915061408182613691565b915061408d82876135ba565b915061409882613d65565b91506140a482866135ba565b91506140af8261375d565b91506140bb82856135ba565b91506140c682613dcb565b91506140d282846135ba565b91506140dd82613acd565b9150819050979650505050505050565b60006140f882613cbf565b915061410482846135ba565b915081905092915050565b6000602082019050614124600083018461347c565b92915050565b600060808201905061413f600083018761347c565b61414c602083018661347c565b6141596040830185614039565b818103606083015261416b818461350f565b905095945050505050565b600060608201905061418b600083018661347c565b6141986020830185614039565b6141a56040830184614039565b949350505050565b600060208201905081810360008301526141c7818461348b565b905092915050565b60006020820190506141e46000830184613500565b92915050565b600060208201905081810360008301526142048184613581565b905092915050565b600060808201905081810360008301526142268187613581565b9050818103602083015261423a8186613581565b90506142496040830185614039565b818103606083015261425b8184613581565b905095945050505050565b600060808201905081810360008301526142808187613581565b905081810360208301526142948186613581565b90506142a36040830185614039565b6142b06060830184614039565b95945050505050565b600060a08201905081810360008301526142d38188613581565b905081810360208301526142e78187613581565b90506142f66040830186614039565b6143036060830185614039565b6143106080830184614039565b9695505050505050565b600060408201905081810360008301526143348185613581565b90506143436020830184614039565b9392505050565b600060608201905081810360008301526143648186613581565b90506143736020830185614039565b6143806040830184614039565b949350505050565b600060208201905081810360008301526143a18161362b565b9050919050565b600060208201905081810360008301526143c18161371d565b9050919050565b600060208201905081810360008301526143e18161379d565b9050919050565b6000602082019050818103600083015261440181613803565b9050919050565b6000602082019050818103600083015261442181613843565b9050919050565b60006020820190508181036000830152614441816138cf565b9050919050565b6000602082019050818103600083015261446181613935565b9050919050565b600060208201905081810360008301526144818161399b565b9050919050565b600060208201905081810360008301526144a181613a01565b9050919050565b600060208201905081810360008301526144c181613a67565b9050919050565b600060208201905081810360008301526144e181613b0d565b9050919050565b6000602082019050818103600083015261450181613b4d565b9050919050565b6000602082019050818103600083015261452181613bb3565b9050919050565b6000602082019050818103600083015261454181613c59565b9050919050565b6000602082019050818103600083015261456181613cff565b9050919050565b600060208201905081810360008301526145828184613e31565b905092915050565b600060208201905081810360008301526145a48184613f6c565b905092915050565b60006020820190506145c16000830184614039565b92915050565b6000610100820190506145dd600083018b614039565b81810360208301526145ef818a613581565b905081810360408301526146038189613581565b905081810360608301526146178188613581565b90506146266080830187614039565b61463360a0830186614039565b61464060c0830185614039565b61464d60e0830184614039565b9998505050505050505050565b600060408201905061466f6000830185614039565b61467c6020830184614039565b9392505050565b6000604051905081810181811067ffffffffffffffff821117156146aa576146a9614a75565b5b8060405250919050565b600067ffffffffffffffff8211156146cf576146ce614a75565b5b601f19601f8301169050602081019050919050565b6000819050602082019050919050565b600081519050919050565b600081519050919050565b600081519050919050565b6000602082019050919050565b600082825260208201905092915050565b600082825260208201905092915050565b600082825260208201905092915050565b600082825260208201905092915050565b600081905092915050565b600061477c826148f0565b9150614787836148f0565b9250827fffffffffffffffffffffffffffffffffffffffffffffffffffffffffffffffff038211156147bc576147bb6149e8565b5b828201905092915050565b60006147d2826148f0565b91506147dd836148f0565b9250826147ed576147ec614a17565b5b828204905092915050565b6000614803826148f0565b915061480e836148f0565b9250817fffffffffffffffffffffffffffffffffffffffffffffffffffffffffffffffff0483118215151615614847576148466149e8565b5b828202905092915050565b600061485d826148f0565b9150614868836148f0565b92508282101561487b5761487a6149e8565b5b828203905092915050565b6000614891826148d0565b9050919050565b60008115159050919050565b60007fffffffff0000000000000000000000000000000000000000000000000000000082169050919050565b600073ffffffffffffffffffffffffffffffffffffffff82169050919050565b6000819050919050565b82818337600083830152505050565b60005b8381101561492757808201518184015260208101905061490c565b83811115614936576000848401525b50505050565b6000600282049050600182168061495457607f821691505b6020821081141561496857614967614a46565b5b50919050565b6000614979826148f0565b91507fffffffffffffffffffffffffffffffffffffffffffffffffffffffffffffffff8214156149ac576149ab6149e8565b5b600182019050919050565b60006149c2826148f0565b91506149cd836148f0565b9250826149dd576149dc614a17565b5b828206905092915050565b7f4e487b7100000000000000000000000000000000000000000000000000000000600052601160045260246000fd5b7f4e487b7100000000000000000000000000000000000000000000000000000000600052601260045260246000fd5b7f4e487b7100000000000000000000000000000000000000000000000000000000600052602260045260246000fd5b7f4e487b7100000000000000000000000000000000000000000000000000000000600052604160045260246000fd5b6000601f19601f8301169050919050565b614abe81614886565b8114614ac957600080fd5b50565b614ad581614898565b8114614ae057600080fd5b50565b614aec816148a4565b8114614af757600080fd5b50565b614b03816148f0565b8114614b0e57600080fd5b5056fe506c617965722061747461636b656420626f73732e204e657720626f73732068703a2025734142434445464748494a4b4c4d4e4f505152535455565758595a6162636465666768696a6b6c6d6e6f707172737475767778797a303132333435363738392b2f426f73732061747461636b656420706c617965722e204e657720706c617965722068703a2025730a4d696e746564204e465420772f20746f6b656e496420257320616e6420636861726163746572496e6465782025730a506c6179657220772f206368617261637465722025732061626f757420746f2061747461636b2e2048617320257320485020616e64202573204144a2646970667358221220b998b79dfb62f2b93e49e0496acac78cc800e1358f0b56f6d88b73af582c84a964736f6c63430008000033446f6e6520696e697469616c697a696e6720257320772f2048502025732c20696d67202573446f6e6520696e697469616c697a696e6720626f737320257320772f2048502025732c20696d67202573",
  "linkReferences": {},
  "deployedLinkReferences": {}
}